{
  "_format": "hh-sol-artifact-1",
  "contractName": "TimeLock",
  "sourceName": "blockchain/contracts/TimeLock.sol",
  "abi": [
    {
      "inputs": [
        {
          "internalType": "uint256",
          "name": "_timelockPeriod",
          "type": "uint256"
        },
        {
          "internalType": "address",
          "name": "_tokenAddress",
          "type": "address"
        }
      ],
      "stateMutability": "nonpayable",
      "type": "constructor"
    },
    {
      "anonymous": false,
      "inputs": [
        {
          "indexed": false,
          "internalType": "address",
          "name": "userAddress",
          "type": "address"
        },
        {
          "indexed": false,
          "internalType": "address payable",
          "name": "relayerAddress",
          "type": "address"
        },
        {
          "indexed": false,
          "internalType": "bytes",
          "name": "functionSignature",
          "type": "bytes"
        }
      ],
      "name": "MetaTransactionExecuted",
      "type": "event"
    },
    {
      "anonymous": false,
      "inputs": [
        {
          "indexed": true,
          "internalType": "address",
          "name": "previousOwner",
          "type": "address"
        },
        {
          "indexed": true,
          "internalType": "address",
          "name": "newOwner",
          "type": "address"
        }
      ],
      "name": "OwnershipTransferred",
      "type": "event"
    },
    {
      "anonymous": false,
      "inputs": [
        {
          "indexed": false,
          "internalType": "address",
          "name": "token",
          "type": "address"
        },
        {
          "indexed": false,
          "internalType": "uint256",
          "name": "amount",
          "type": "uint256"
        },
        {
          "indexed": false,
          "internalType": "uint256",
          "name": "timelocked",
          "type": "uint256"
        }
      ],
      "name": "depositStatus",
      "type": "event"
    },
    {
      "anonymous": false,
      "inputs": [
        {
          "indexed": false,
          "internalType": "address",
          "name": "token",
          "type": "address"
        },
        {
          "indexed": false,
          "internalType": "uint256",
          "name": "amount",
          "type": "uint256"
        }
      ],
      "name": "withdrawStatus",
      "type": "event"
    },
    {
      "stateMutability": "payable",
      "type": "fallback"
    },
    {
      "inputs": [
        {
          "internalType": "address",
          "name": "_tokenAddress",
          "type": "address"
        }
      ],
      "name": "addNewToken",
      "outputs": [],
      "stateMutability": "nonpayable",
      "type": "function"
    },
    {
      "inputs": [
        {
          "internalType": "address",
          "name": "",
          "type": "address"
        },
        {
          "internalType": "address",
          "name": "",
          "type": "address"
        }
      ],
      "name": "depositData",
      "outputs": [
        {
          "internalType": "uint256",
          "name": "amount",
          "type": "uint256"
        },
        {
          "internalType": "uint256",
          "name": "timelocked",
          "type": "uint256"
        }
      ],
      "stateMutability": "view",
      "type": "function"
    },
    {
      "inputs": [
        {
          "internalType": "address",
          "name": "_token",
          "type": "address"
        },
        {
          "internalType": "uint256",
          "name": "_amount",
          "type": "uint256"
        }
      ],
      "name": "depositERC20",
      "outputs": [],
      "stateMutability": "nonpayable",
      "type": "function"
    },
    {
      "inputs": [],
      "name": "depositEther",
      "outputs": [],
      "stateMutability": "payable",
      "type": "function"
    },
    {
      "inputs": [
        {
          "internalType": "uint256",
          "name": "_timelockPeriod",
          "type": "uint256"
        }
      ],
      "name": "editTimelockPeriod",
      "outputs": [],
      "stateMutability": "nonpayable",
      "type": "function"
    },
    {
      "inputs": [
        {
          "internalType": "address",
          "name": "userAddress",
          "type": "address"
        },
        {
          "internalType": "bytes",
          "name": "functionSignature",
          "type": "bytes"
        },
        {
          "internalType": "bytes32",
          "name": "sigR",
          "type": "bytes32"
        },
        {
          "internalType": "bytes32",
          "name": "sigS",
          "type": "bytes32"
        },
        {
          "internalType": "uint8",
          "name": "sigV",
          "type": "uint8"
        }
      ],
      "name": "executeMetaTransaction",
      "outputs": [
        {
          "internalType": "bytes",
          "name": "",
          "type": "bytes"
        }
      ],
      "stateMutability": "payable",
      "type": "function"
    },
    {
      "inputs": [],
      "name": "getEtherBalance",
      "outputs": [
        {
          "internalType": "uint256",
          "name": "",
          "type": "uint256"
        }
      ],
      "stateMutability": "view",
      "type": "function"
    },
    {
      "inputs": [
        {
          "internalType": "address",
          "name": "user",
          "type": "address"
        }
      ],
      "name": "getNonce",
      "outputs": [
        {
          "internalType": "uint256",
          "name": "nonce",
          "type": "uint256"
        }
      ],
      "stateMutability": "view",
      "type": "function"
    },
    {
      "inputs": [
        {
          "components": [
            {
              "internalType": "address",
              "name": "user",
              "type": "address"
            },
            {
              "internalType": "address",
              "name": "token",
              "type": "address"
            },
            {
              "internalType": "uint256",
              "name": "amount",
              "type": "uint256"
            },
            {
              "internalType": "bytes",
              "name": "signature",
              "type": "bytes"
            }
          ],
          "internalType": "struct TimeLock.withdrawVoucher",
          "name": "_voucher",
          "type": "tuple"
        }
      ],
      "name": "getVoucherHash",
      "outputs": [
        {
          "internalType": "bytes32",
          "name": "",
          "type": "bytes32"
        }
      ],
      "stateMutability": "pure",
      "type": "function"
    },
    {
      "inputs": [],
      "name": "owner",
      "outputs": [
        {
          "internalType": "address",
          "name": "",
          "type": "address"
        }
      ],
      "stateMutability": "view",
      "type": "function"
    },
    {
      "inputs": [
        {
          "internalType": "address",
          "name": "_tokenAddress",
          "type": "address"
        }
      ],
      "name": "removeTokenSupport",
      "outputs": [],
      "stateMutability": "nonpayable",
      "type": "function"
    },
    {
      "inputs": [],
      "name": "renounceOwnership",
      "outputs": [],
      "stateMutability": "nonpayable",
      "type": "function"
    },
    {
      "inputs": [
        {
          "internalType": "address",
          "name": "",
          "type": "address"
        }
      ],
      "name": "supportedTokens",
      "outputs": [
        {
          "internalType": "bool",
          "name": "",
          "type": "bool"
        }
      ],
      "stateMutability": "view",
      "type": "function"
    },
    {
      "inputs": [],
      "name": "timelockPeriod",
      "outputs": [
        {
          "internalType": "uint256",
          "name": "",
          "type": "uint256"
        }
      ],
      "stateMutability": "view",
      "type": "function"
    },
    {
      "inputs": [
        {
          "internalType": "address",
          "name": "newOwner",
          "type": "address"
        }
      ],
      "name": "transferOwnership",
      "outputs": [],
      "stateMutability": "nonpayable",
      "type": "function"
    },
    {
      "inputs": [
        {
          "components": [
            {
              "internalType": "address",
              "name": "user",
              "type": "address"
            },
            {
              "internalType": "address",
              "name": "token",
              "type": "address"
            },
            {
              "internalType": "uint256",
              "name": "amount",
              "type": "uint256"
            },
            {
              "internalType": "bytes",
              "name": "signature",
              "type": "bytes"
            }
          ],
          "internalType": "struct TimeLock.withdrawVoucher",
          "name": "_voucher",
          "type": "tuple"
        }
      ],
      "name": "verify",
      "outputs": [
        {
          "internalType": "bool",
          "name": "",
          "type": "bool"
        }
      ],
      "stateMutability": "pure",
      "type": "function"
    },
    {
      "inputs": [
        {
          "internalType": "address",
          "name": "_token",
          "type": "address"
        },
        {
          "internalType": "uint256",
          "name": "_amount",
          "type": "uint256"
        }
      ],
      "name": "withdrawERC20Direct",
      "outputs": [],
      "stateMutability": "nonpayable",
      "type": "function"
    },
    {
      "inputs": [
        {
          "internalType": "uint256",
          "name": "_amount",
          "type": "uint256"
        }
      ],
      "name": "withdrawEtherDirect",
      "outputs": [],
      "stateMutability": "nonpayable",
      "type": "function"
    },
    {
      "inputs": [
        {
          "components": [
            {
              "internalType": "address",
              "name": "user",
              "type": "address"
            },
            {
              "internalType": "address",
              "name": "token",
              "type": "address"
            },
            {
              "internalType": "uint256",
              "name": "amount",
              "type": "uint256"
            },
            {
              "internalType": "bytes",
              "name": "signature",
              "type": "bytes"
            }
          ],
          "internalType": "struct TimeLock.withdrawVoucher",
          "name": "_voucher",
          "type": "tuple"
        }
      ],
      "name": "withdrawWithVoucher",
      "outputs": [],
      "stateMutability": "nonpayable",
      "type": "function"
    },
    {
      "stateMutability": "payable",
      "type": "receive"
    }
  ],
  "bytecode": "0x60806040523480156200001157600080fd5b50604051620047f5380380620047f5833981810160405281019062000037919062000437565b6040518060400160405280600881526020017f54696d654c6f636b0000000000000000000000000000000000000000000000008152506040518060400160405280600281526020017f563100000000000000000000000000000000000000000000000000000000000081525081816040518060800160405280604f8152602001620047a6604f9139805190602001208280519060200120828051906020012030620000e7620002bc60201b60201c565b60001b60405160200162000100959493929190620004aa565b60405160208183030381529060405280519060200120600081905550505050506001600281905550620001486200013c620002c460201b60201c565b620002cc60201b60201c565b60008173ffffffffffffffffffffffffffffffffffffffff166318160ddd6040518163ffffffff1660e01b815260040160206040518083038186803b1580156200019157600080fd5b505afa158015620001a6573d6000803e3d6000fd5b505050506040513d601f19601f82011682018060405250810190620001cc919062000507565b116200020f576040517f08c379a000000000000000000000000000000000000000000000000000000000815260040162000206906200059a565b60405180910390fd5b600a821162000255576040517f08c379a00000000000000000000000000000000000000000000000000000000081526004016200024c9062000632565b60405180910390fd5b816004819055506001600560008373ffffffffffffffffffffffffffffffffffffffff1673ffffffffffffffffffffffffffffffffffffffff16815260200190815260200160002060006101000a81548160ff021916908315150217905550505062000654565b600046905090565b600033905090565b6000600360009054906101000a900473ffffffffffffffffffffffffffffffffffffffff16905081600360006101000a81548173ffffffffffffffffffffffffffffffffffffffff021916908373ffffffffffffffffffffffffffffffffffffffff1602179055508173ffffffffffffffffffffffffffffffffffffffff168173ffffffffffffffffffffffffffffffffffffffff167f8be0079c531659141344cd1fd0a4f28419497f9722a3daafe3b4186f6b6457e060405160405180910390a35050565b600080fd5b6000819050919050565b620003ac8162000397565b8114620003b857600080fd5b50565b600081519050620003cc81620003a1565b92915050565b600073ffffffffffffffffffffffffffffffffffffffff82169050919050565b6000620003ff82620003d2565b9050919050565b6200041181620003f2565b81146200041d57600080fd5b50565b600081519050620004318162000406565b92915050565b6000806040838503121562000451576200045062000392565b5b60006200046185828601620003bb565b9250506020620004748582860162000420565b9150509250929050565b6000819050919050565b62000493816200047e565b82525050565b620004a481620003f2565b82525050565b600060a082019050620004c1600083018862000488565b620004d0602083018762000488565b620004df604083018662000488565b620004ee606083018562000499565b620004fd608083018462000488565b9695505050505050565b60006020828403121562000520576200051f62000392565b5b60006200053084828501620003bb565b91505092915050565b600082825260208201905092915050565b7f4e6f7420612076616c6964204552433230206164647265737300000000000000600082015250565b60006200058260198362000539565b91506200058f826200054a565b602082019050919050565b60006020820190508181036000830152620005b58162000573565b9050919050565b7f54696d656c6f636b2073686f756c642062652067726561746572207468616e2060008201527f3130207365636f6e647300000000000000000000000000000000000000000000602082015250565b60006200061a602a8362000539565b91506200062782620005bc565b604082019050919050565b600060208201905081810360008301526200064d816200060b565b9050919050565b61414280620006646000396000f3fe6080604052600436106101185760003560e01c8063715018a6116100a0578063d3bb4a7711610064578063d3bb4a7714610385578063dbf7036b146103ae578063e38a103d146103ec578063ea46193e14610429578063f2fde38b1461045457610127565b8063715018a6146102e75780638da5cb5b146102fe57806397feb9261461032957806398ea5fca14610352578063a3bfba8f1461035c57610127565b80632d0335ab116100e75780632d0335ab146101f05780632dad61cc1461022d5780632ecaf6751461025657806364db444a1461028157806368c4ac26146102aa57610127565b80630ab0d858146101315780630c53c51c1461016e578063120ad4701461019e5780632ba8d939146101c757610127565b366101275761012561047d565b005b61012f61047d565b005b34801561013d57600080fd5b5061015860048036038101906101539190612a89565b61071a565b6040516101659190612aed565b60405180910390f35b61018860048036038101906101839190612d1b565b6107da565b6040516101959190612e3a565b60405180910390f35b3480156101aa57600080fd5b506101c560048036038101906101c09190612e92565b610afe565b005b3480156101d357600080fd5b506101ee60048036038101906101e99190612ebf565b610e9a565b005b3480156101fc57600080fd5b5061021760048036038101906102129190612ebf565b610f89565b6040516102249190612efb565b60405180910390f35b34801561023957600080fd5b50610254600480360381019061024f9190612e92565b610fd2565b005b34801561026257600080fd5b5061026b610fe4565b6040516102789190612efb565b60405180910390f35b34801561028d57600080fd5b506102a860048036038101906102a39190612ebf565b610fea565b005b3480156102b657600080fd5b506102d160048036038101906102cc9190612ebf565b61119a565b6040516102de9190612aed565b60405180910390f35b3480156102f357600080fd5b506102fc6111ba565b005b34801561030a57600080fd5b506103136111ce565b6040516103209190612f25565b60405180910390f35b34801561033557600080fd5b50610350600480360381019061034b9190612f40565b6111f8565b005b61035a61047d565b005b34801561036857600080fd5b50610383600480360381019061037e9190612f40565b611761565b005b34801561039157600080fd5b506103ac60048036038101906103a79190612a89565b611bf1565b005b3480156103ba57600080fd5b506103d560048036038101906103d09190612f80565b6124f2565b6040516103e3929190612fc0565b60405180910390f35b3480156103f857600080fd5b50610413600480360381019061040e9190612a89565b612523565b6040516104209190612ff8565b60405180910390f35b34801561043557600080fd5b5061043e61257f565b60405161044b9190612efb565b60405180910390f35b34801561046057600080fd5b5061047b60048036038101906104769190612ebf565b612587565b005b60006006600061048b61260b565b73ffffffffffffffffffffffffffffffffffffffff1673ffffffffffffffffffffffffffffffffffffffff16815260200190815260200160002060008073ffffffffffffffffffffffffffffffffffffffff1673ffffffffffffffffffffffffffffffffffffffff1681526020019081526020016000209050604051806040016040528034836000015461051f9190613042565b8152602001600454426105329190613042565b8152506006600061054161260b565b73ffffffffffffffffffffffffffffffffffffffff1673ffffffffffffffffffffffffffffffffffffffff16815260200190815260200160002060008073ffffffffffffffffffffffffffffffffffffffff1673ffffffffffffffffffffffffffffffffffffffff16815260200190815260200160002060008201518160000155602082015181600101559050507f33103a19e775ef0c670e4914d03fa17e694563cf1c33ffcc1a33fd4514a335f16000600660006105fe61260b565b73ffffffffffffffffffffffffffffffffffffffff1673ffffffffffffffffffffffffffffffffffffffff16815260200190815260200160002060008073ffffffffffffffffffffffffffffffffffffffff1673ffffffffffffffffffffffffffffffffffffffff168152602001908152602001600020600001546006600061068561260b565b73ffffffffffffffffffffffffffffffffffffffff1673ffffffffffffffffffffffffffffffffffffffff16815260200190815260200160002060008073ffffffffffffffffffffffffffffffffffffffff1673ffffffffffffffffffffffffffffffffffffffff1681526020019081526020016000206001015460405161070f93929190613098565b60405180910390a150565b60008061072683612523565b9050600061073382612613565b90508360000160208101906107489190612ebf565b73ffffffffffffffffffffffffffffffffffffffff166107ba8286806060019061077291906130de565b8080601f016020809104026020016040519081016040528093929190818152602001838380828437600081840152601f19601f82011690508083019250505050505050612643565b73ffffffffffffffffffffffffffffffffffffffff161492505050919050565b606060006107e7866126b2565b90506000357fffffffff00000000000000000000000000000000000000000000000000000000167bffffffffffffffffffffffffffffffffffffffffffffffffffffffff1916817bffffffffffffffffffffffffffffffffffffffffffffffffffffffff1916141561088e576040517f08c379a0000000000000000000000000000000000000000000000000000000008152600401610885906131c4565b60405180910390fd5b60006040518060600160405280600160008b73ffffffffffffffffffffffffffffffffffffffff1673ffffffffffffffffffffffffffffffffffffffff1681526020019081526020016000205481526020018973ffffffffffffffffffffffffffffffffffffffff16815260200188815250905061090f88828888886126d6565b61094e576040517f08c379a000000000000000000000000000000000000000000000000000000000815260040161094590613256565b60405180910390fd5b6109a060018060008b73ffffffffffffffffffffffffffffffffffffffff1673ffffffffffffffffffffffffffffffffffffffff168152602001908152602001600020546127e590919063ffffffff16565b600160008a73ffffffffffffffffffffffffffffffffffffffff1673ffffffffffffffffffffffffffffffffffffffff168152602001908152602001600020819055506000803073ffffffffffffffffffffffffffffffffffffffff16898b604051602001610a109291906132fa565b604051602081830303815290604052604051610a2c9190613322565b6000604051808303816000865af19150503d8060008114610a69576040519150601f19603f3d011682016040523d82523d6000602084013e610a6e565b606091505b509150915081610ab3576040517f08c379a0000000000000000000000000000000000000000000000000000000008152600401610aaa90613385565b60405180910390fd5b7f5845892132946850460bff5a0083f71031bc5bf9aadcd40f1de79423eac9b10b8a338b604051610ae6939291906133c6565b60405180910390a18094505050505095945050505050565b80471015610b41576040517f08c379a0000000000000000000000000000000000000000000000000000000008152600401610b3890613476565b60405180910390fd5b600060066000610b4f61260b565b73ffffffffffffffffffffffffffffffffffffffff1673ffffffffffffffffffffffffffffffffffffffff16815260200190815260200160002060008073ffffffffffffffffffffffffffffffffffffffff1673ffffffffffffffffffffffffffffffffffffffff16815260200190815260200160002090508181600001541015610c0f576040517f08c379a0000000000000000000000000000000000000000000000000000000008152600401610c0690613508565b60405180910390fd5b42816001015410610c55576040517f08c379a0000000000000000000000000000000000000000000000000000000008152600401610c4c9061359a565b60405180910390fd5b6040518060400160405280838360000154610c7091906135ba565b8152602001600142610c8291906135ba565b81525060066000610c9161260b565b73ffffffffffffffffffffffffffffffffffffffff1673ffffffffffffffffffffffffffffffffffffffff16815260200190815260200160002060008073ffffffffffffffffffffffffffffffffffffffff1673ffffffffffffffffffffffffffffffffffffffff1681526020019081526020016000206000820151816000015560208201518160010155905050600080610d2a61260b565b73ffffffffffffffffffffffffffffffffffffffff1684604051610d4d90613614565b60006040518083038185875af1925050503d8060008114610d8a576040519150601f19603f3d011682016040523d82523d6000602084013e610d8f565b606091505b509150915081610dd4576040517f08c379a0000000000000000000000000000000000000000000000000000000008152600401610dcb90613675565b60405180910390fd5b7f9f0ef79661998636b280db09179f359f3e73caf44f82307c07d2dad6a9752c6c600060066000610e0361260b565b73ffffffffffffffffffffffffffffffffffffffff1673ffffffffffffffffffffffffffffffffffffffff16815260200190815260200160002060008073ffffffffffffffffffffffffffffffffffffffff1673ffffffffffffffffffffffffffffffffffffffff16815260200190815260200160002060000154604051610e8c929190613695565b60405180910390a150505050565b610ea26127fb565b600560008273ffffffffffffffffffffffffffffffffffffffff1673ffffffffffffffffffffffffffffffffffffffff16815260200190815260200160002060009054906101000a900460ff16610f2e576040517f08c379a0000000000000000000000000000000000000000000000000000000008152600401610f2590613730565b60405180910390fd5b6000600560008373ffffffffffffffffffffffffffffffffffffffff1673ffffffffffffffffffffffffffffffffffffffff16815260200190815260200160002060006101000a81548160ff02191690831515021790555050565b6000600160008373ffffffffffffffffffffffffffffffffffffffff1673ffffffffffffffffffffffffffffffffffffffff168152602001908152602001600020549050919050565b610fda6127fb565b8060048190555050565b60045481565b610ff26127fb565b60008173ffffffffffffffffffffffffffffffffffffffff166318160ddd6040518163ffffffff1660e01b815260040160206040518083038186803b15801561103a57600080fd5b505afa15801561104e573d6000803e3d6000fd5b505050506040513d601f19601f820116820180604052508101906110729190613765565b116110b2576040517f08c379a00000000000000000000000000000000000000000000000000000000081526004016110a990613804565b60405180910390fd5b600560008273ffffffffffffffffffffffffffffffffffffffff1673ffffffffffffffffffffffffffffffffffffffff16815260200190815260200160002060009054906101000a900460ff161561113f576040517f08c379a000000000000000000000000000000000000000000000000000000000815260040161113690613896565b60405180910390fd5b6001600560008373ffffffffffffffffffffffffffffffffffffffff1673ffffffffffffffffffffffffffffffffffffffff16815260200190815260200160002060006101000a81548160ff02191690831515021790555050565b60056020528060005260406000206000915054906101000a900460ff1681565b6111c26127fb565b6111cc6000612879565b565b6000600360009054906101000a900473ffffffffffffffffffffffffffffffffffffffff16905090565b81600560008273ffffffffffffffffffffffffffffffffffffffff1673ffffffffffffffffffffffffffffffffffffffff16815260200190815260200160002060009054906101000a900460ff16611285576040517f08c379a000000000000000000000000000000000000000000000000000000000815260040161127c90613928565b60405180910390fd5b818373ffffffffffffffffffffffffffffffffffffffff166370a082316112aa61260b565b6040518263ffffffff1660e01b81526004016112c69190612f25565b60206040518083038186803b1580156112de57600080fd5b505afa1580156112f2573d6000803e3d6000fd5b505050506040513d601f19601f820116820180604052508101906113169190613765565b1015611357576040517f08c379a000000000000000000000000000000000000000000000000000000000815260040161134e906139ba565b60405180910390fd5b818373ffffffffffffffffffffffffffffffffffffffff1663dd62ed3e61137c61260b565b306040518363ffffffff1660e01b815260040161139a9291906139da565b60206040518083038186803b1580156113b257600080fd5b505afa1580156113c6573d6000803e3d6000fd5b505050506040513d601f19601f820116820180604052508101906113ea9190613765565b101561142b576040517f08c379a000000000000000000000000000000000000000000000000000000000815260040161142290613a75565b60405180910390fd5b8273ffffffffffffffffffffffffffffffffffffffff166323b872dd61144f61260b565b30856040518463ffffffff1660e01b815260040161146f93929190613a95565b602060405180830381600087803b15801561148957600080fd5b505af115801561149d573d6000803e3d6000fd5b505050506040513d601f19601f820116820180604052508101906114c19190613af8565b506000600660006114d061260b565b73ffffffffffffffffffffffffffffffffffffffff1673ffffffffffffffffffffffffffffffffffffffff16815260200190815260200160002060008573ffffffffffffffffffffffffffffffffffffffff1673ffffffffffffffffffffffffffffffffffffffff168152602001908152602001600020905060405180604001604052808483600001546115649190613042565b8152602001600454426115779190613042565b8152506006600061158661260b565b73ffffffffffffffffffffffffffffffffffffffff1673ffffffffffffffffffffffffffffffffffffffff16815260200190815260200160002060008673ffffffffffffffffffffffffffffffffffffffff1673ffffffffffffffffffffffffffffffffffffffff16815260200190815260200160002060008201518160000155602082015181600101559050507f33103a19e775ef0c670e4914d03fa17e694563cf1c33ffcc1a33fd4514a335f1846006600061164261260b565b73ffffffffffffffffffffffffffffffffffffffff1673ffffffffffffffffffffffffffffffffffffffff16815260200190815260200160002060008773ffffffffffffffffffffffffffffffffffffffff1673ffffffffffffffffffffffffffffffffffffffff16815260200190815260200160002060000154600660006116c961260b565b73ffffffffffffffffffffffffffffffffffffffff1673ffffffffffffffffffffffffffffffffffffffff16815260200190815260200160002060008873ffffffffffffffffffffffffffffffffffffffff1673ffffffffffffffffffffffffffffffffffffffff1681526020019081526020016000206001015460405161175393929190613098565b60405180910390a150505050565b81600560008273ffffffffffffffffffffffffffffffffffffffff1673ffffffffffffffffffffffffffffffffffffffff16815260200190815260200160002060009054906101000a900460ff166117ee576040517f08c379a00000000000000000000000000000000000000000000000000000000081526004016117e590613928565b60405180910390fd5b818373ffffffffffffffffffffffffffffffffffffffff166370a08231306040518263ffffffff1660e01b81526004016118289190612f25565b60206040518083038186803b15801561184057600080fd5b505afa158015611854573d6000803e3d6000fd5b505050506040513d601f19601f820116820180604052508101906118789190613765565b10156118b9576040517f08c379a00000000000000000000000000000000000000000000000000000000081526004016118b090613b97565b60405180910390fd5b6000600660006118c761260b565b73ffffffffffffffffffffffffffffffffffffffff1673ffffffffffffffffffffffffffffffffffffffff16815260200190815260200160002060008573ffffffffffffffffffffffffffffffffffffffff1673ffffffffffffffffffffffffffffffffffffffff16815260200190815260200160002090508281600001541015611987576040517f08c379a000000000000000000000000000000000000000000000000000000000815260040161197e90613508565b60405180910390fd5b428160010154106119cd576040517f08c379a00000000000000000000000000000000000000000000000000000000081526004016119c490613c29565b60405180910390fd5b60405180604001604052808483600001546119e891906135ba565b81526020016001426119fa91906135ba565b81525060066000611a0961260b565b73ffffffffffffffffffffffffffffffffffffffff1673ffffffffffffffffffffffffffffffffffffffff16815260200190815260200160002060008673ffffffffffffffffffffffffffffffffffffffff1673ffffffffffffffffffffffffffffffffffffffff16815260200190815260200160002060008201518160000155602082015181600101559050508373ffffffffffffffffffffffffffffffffffffffff1663a9059cbb611abb61260b565b856040518363ffffffff1660e01b8152600401611ad9929190613695565b602060405180830381600087803b158015611af357600080fd5b505af1158015611b07573d6000803e3d6000fd5b505050506040513d601f19601f82011682018060405250810190611b2b9190613af8565b507f9f0ef79661998636b280db09179f359f3e73caf44f82307c07d2dad6a9752c6c8460066000611b5a61260b565b73ffffffffffffffffffffffffffffffffffffffff1673ffffffffffffffffffffffffffffffffffffffff16815260200190815260200160002060008073ffffffffffffffffffffffffffffffffffffffff1673ffffffffffffffffffffffffffffffffffffffff16815260200190815260200160002060000154604051611be3929190613695565b60405180910390a150505050565b611bfa8161071a565b611c39576040517f08c379a0000000000000000000000000000000000000000000000000000000008152600401611c3090613cbb565b60405180910390fd5b600073ffffffffffffffffffffffffffffffffffffffff16816020016020810190611c649190612ebf565b73ffffffffffffffffffffffffffffffffffffffff16141561205a578060400135471015611cc7576040517f08c379a0000000000000000000000000000000000000000000000000000000008152600401611cbe90613476565b60405180910390fd5b600060066000836000016020810190611ce09190612ebf565b73ffffffffffffffffffffffffffffffffffffffff1673ffffffffffffffffffffffffffffffffffffffff16815260200190815260200160002060008073ffffffffffffffffffffffffffffffffffffffff1673ffffffffffffffffffffffffffffffffffffffff1681526020019081526020016000209050816040013581600001541015611da4576040517f08c379a0000000000000000000000000000000000000000000000000000000008152600401611d9b90613508565b60405180910390fd5b42816001015410611dea576040517f08c379a0000000000000000000000000000000000000000000000000000000008152600401611de19061359a565b60405180910390fd5b604051806040016040528083604001358360000154611e0991906135ba565b8152602001600142611e1b91906135ba565b81525060066000846000016020810190611e359190612ebf565b73ffffffffffffffffffffffffffffffffffffffff1673ffffffffffffffffffffffffffffffffffffffff16815260200190815260200160002060008073ffffffffffffffffffffffffffffffffffffffff1673ffffffffffffffffffffffffffffffffffffffff1681526020019081526020016000206000820151816000015560208201518160010155905050600080836000016020810190611ed99190612ebf565b73ffffffffffffffffffffffffffffffffffffffff168460400135604051611f0090613614565b60006040518083038185875af1925050503d8060008114611f3d576040519150601f19603f3d011682016040523d82523d6000602084013e611f42565b606091505b509150915081611f87576040517f08c379a0000000000000000000000000000000000000000000000000000000008152600401611f7e90613675565b60405180910390fd5b7f9f0ef79661998636b280db09179f359f3e73caf44f82307c07d2dad6a9752c6c600060066000876000016020810190611fc19190612ebf565b73ffffffffffffffffffffffffffffffffffffffff1673ffffffffffffffffffffffffffffffffffffffff16815260200190815260200160002060008073ffffffffffffffffffffffffffffffffffffffff1673ffffffffffffffffffffffffffffffffffffffff1681526020019081526020016000206000015460405161204a929190613695565b60405180910390a15050506124ef565b80604001358160200160208101906120729190612ebf565b73ffffffffffffffffffffffffffffffffffffffff166370a08231306040518263ffffffff1660e01b81526004016120aa9190612f25565b60206040518083038186803b1580156120c257600080fd5b505afa1580156120d6573d6000803e3d6000fd5b505050506040513d601f19601f820116820180604052508101906120fa9190613765565b101561213b576040517f08c379a000000000000000000000000000000000000000000000000000000000815260040161213290613b97565b60405180910390fd5b6000600660008360000160208101906121549190612ebf565b73ffffffffffffffffffffffffffffffffffffffff1673ffffffffffffffffffffffffffffffffffffffff16815260200190815260200160002060008360200160208101906121a39190612ebf565b73ffffffffffffffffffffffffffffffffffffffff1673ffffffffffffffffffffffffffffffffffffffff168152602001908152602001600020905081604001358160000154101561222a576040517f08c379a000000000000000000000000000000000000000000000000000000000815260040161222190613508565b60405180910390fd5b42816001015410612270576040517f08c379a000000000000000000000000000000000000000000000000000000000815260040161226790613c29565b60405180910390fd5b60405180604001604052808360400135836000015461228f91906135ba565b81526020016001426122a191906135ba565b815250600660008460000160208101906122bb9190612ebf565b73ffffffffffffffffffffffffffffffffffffffff1673ffffffffffffffffffffffffffffffffffffffff168152602001908152602001600020600084602001602081019061230a9190612ebf565b73ffffffffffffffffffffffffffffffffffffffff1673ffffffffffffffffffffffffffffffffffffffff168152602001908152602001600020600082015181600001556020820151816001015590505081602001602081019061236e9190612ebf565b73ffffffffffffffffffffffffffffffffffffffff1663a9059cbb83600001602081019061239c9190612ebf565b84604001356040518363ffffffff1660e01b81526004016123be929190613695565b602060405180830381600087803b1580156123d857600080fd5b505af11580156123ec573d6000803e3d6000fd5b505050506040513d601f19601f820116820180604052508101906124109190613af8565b507f9f0ef79661998636b280db09179f359f3e73caf44f82307c07d2dad6a9752c6c8260200160208101906124459190612ebf565b6006600085600001602081019061245c9190612ebf565b73ffffffffffffffffffffffffffffffffffffffff1673ffffffffffffffffffffffffffffffffffffffff16815260200190815260200160002060008073ffffffffffffffffffffffffffffffffffffffff1673ffffffffffffffffffffffffffffffffffffffff168152602001908152602001600020600001546040516124e5929190613695565b60405180910390a1505b50565b6006602052816000526040600020602052806000526040600020600091509150508060000154908060010154905082565b60008160000160208101906125389190612ebf565b82602001602081019061254b9190612ebf565b836040013560405160200161256293929190613cfc565b604051602081830303815290604052805190602001209050919050565b600047905090565b61258f6127fb565b600073ffffffffffffffffffffffffffffffffffffffff168173ffffffffffffffffffffffffffffffffffffffff1614156125ff576040517f08c379a00000000000000000000000000000000000000000000000000000000081526004016125f690613dab565b60405180910390fd5b61260881612879565b50565b600033905090565b6000816040516020016126269190613e43565b604051602081830303815290604052805190602001209050919050565b6000806000806126528561293f565b9250925092506001868285856040516000815260200160405260405161267b9493929190613e78565b6020604051602081039080840390855afa15801561269d573d6000803e3d6000fd5b50505060206040510351935050505092915050565b600080825114156126c957600060e01b90506126d1565b602082015190505b919050565b60008060016126ec6126e7886129a7565b612a0f565b8487876040516000815260200160405260405161270c9493929190613e78565b6020604051602081039080840390855afa15801561272e573d6000803e3d6000fd5b505050602060405103519050600073ffffffffffffffffffffffffffffffffffffffff168173ffffffffffffffffffffffffffffffffffffffff1614156127aa576040517f08c379a00000000000000000000000000000000000000000000000000000000081526004016127a190613f09565b60405180910390fd5b8673ffffffffffffffffffffffffffffffffffffffff168173ffffffffffffffffffffffffffffffffffffffff161491505095945050505050565b600081836127f39190613042565b905092915050565b61280361260b565b73ffffffffffffffffffffffffffffffffffffffff166128216111ce565b73ffffffffffffffffffffffffffffffffffffffff1614612877576040517f08c379a000000000000000000000000000000000000000000000000000000000815260040161286e90613f75565b60405180910390fd5b565b6000600360009054906101000a900473ffffffffffffffffffffffffffffffffffffffff16905081600360006101000a81548173ffffffffffffffffffffffffffffffffffffffff021916908373ffffffffffffffffffffffffffffffffffffffff1602179055508173ffffffffffffffffffffffffffffffffffffffff168173ffffffffffffffffffffffffffffffffffffffff167f8be0079c531659141344cd1fd0a4f28419497f9722a3daafe3b4186f6b6457e060405160405180910390a35050565b60008060006041845114612988576040517f08c379a000000000000000000000000000000000000000000000000000000000815260040161297f90613fe1565b60405180910390fd5b6020840151925060408401519150606084015160001a90509193909250565b60006040518060800160405280604381526020016140ca6043913980519060200120826000015183602001518460400151805190602001206040516020016129f29493929190614001565b604051602081830303815290604052805190602001209050919050565b6000612a19612a48565b82604051602001612a2b929190614092565b604051602081830303815290604052805190602001209050919050565b60008054905090565b6000604051905090565b600080fd5b600080fd5b600080fd5b600060808284031215612a8057612a7f612a65565b5b81905092915050565b600060208284031215612a9f57612a9e612a5b565b5b600082013567ffffffffffffffff811115612abd57612abc612a60565b5b612ac984828501612a6a565b91505092915050565b60008115159050919050565b612ae781612ad2565b82525050565b6000602082019050612b026000830184612ade565b92915050565b600073ffffffffffffffffffffffffffffffffffffffff82169050919050565b6000612b3382612b08565b9050919050565b612b4381612b28565b8114612b4e57600080fd5b50565b600081359050612b6081612b3a565b92915050565b600080fd5b600080fd5b6000601f19601f8301169050919050565b7f4e487b7100000000000000000000000000000000000000000000000000000000600052604160045260246000fd5b612bb982612b70565b810181811067ffffffffffffffff82111715612bd857612bd7612b81565b5b80604052505050565b6000612beb612a51565b9050612bf78282612bb0565b919050565b600067ffffffffffffffff821115612c1757612c16612b81565b5b612c2082612b70565b9050602081019050919050565b82818337600083830152505050565b6000612c4f612c4a84612bfc565b612be1565b905082815260208101848484011115612c6b57612c6a612b6b565b5b612c76848285612c2d565b509392505050565b600082601f830112612c9357612c92612b66565b5b8135612ca3848260208601612c3c565b91505092915050565b6000819050919050565b612cbf81612cac565b8114612cca57600080fd5b50565b600081359050612cdc81612cb6565b92915050565b600060ff82169050919050565b612cf881612ce2565b8114612d0357600080fd5b50565b600081359050612d1581612cef565b92915050565b600080600080600060a08688031215612d3757612d36612a5b565b5b6000612d4588828901612b51565b955050602086013567ffffffffffffffff811115612d6657612d65612a60565b5b612d7288828901612c7e565b9450506040612d8388828901612ccd565b9350506060612d9488828901612ccd565b9250506080612da588828901612d06565b9150509295509295909350565b600081519050919050565b600082825260208201905092915050565b60005b83811015612dec578082015181840152602081019050612dd1565b83811115612dfb576000848401525b50505050565b6000612e0c82612db2565b612e168185612dbd565b9350612e26818560208601612dce565b612e2f81612b70565b840191505092915050565b60006020820190508181036000830152612e548184612e01565b905092915050565b6000819050919050565b612e6f81612e5c565b8114612e7a57600080fd5b50565b600081359050612e8c81612e66565b92915050565b600060208284031215612ea857612ea7612a5b565b5b6000612eb684828501612e7d565b91505092915050565b600060208284031215612ed557612ed4612a5b565b5b6000612ee384828501612b51565b91505092915050565b612ef581612e5c565b82525050565b6000602082019050612f106000830184612eec565b92915050565b612f1f81612b28565b82525050565b6000602082019050612f3a6000830184612f16565b92915050565b60008060408385031215612f5757612f56612a5b565b5b6000612f6585828601612b51565b9250506020612f7685828601612e7d565b9150509250929050565b60008060408385031215612f9757612f96612a5b565b5b6000612fa585828601612b51565b9250506020612fb685828601612b51565b9150509250929050565b6000604082019050612fd56000830185612eec565b612fe26020830184612eec565b9392505050565b612ff281612cac565b82525050565b600060208201905061300d6000830184612fe9565b92915050565b7f4e487b7100000000000000000000000000000000000000000000000000000000600052601160045260246000fd5b600061304d82612e5c565b915061305883612e5c565b9250827fffffffffffffffffffffffffffffffffffffffffffffffffffffffffffffffff0382111561308d5761308c613013565b5b828201905092915050565b60006060820190506130ad6000830186612f16565b6130ba6020830185612eec565b6130c76040830184612eec565b949350505050565b600080fd5b600080fd5b600080fd5b600080833560016020038436030381126130fb576130fa6130cf565b5b80840192508235915067ffffffffffffffff82111561311d5761311c6130d4565b5b602083019250600182023603831315613139576131386130d9565b5b509250929050565b600082825260208201905092915050565b7f66756e6374696f6e5369676e61747572652063616e206e6f74206265206f662060008201527f657865637574654d6574615472616e73616374696f6e206d6574686f64000000602082015250565b60006131ae603d83613141565b91506131b982613152565b604082019050919050565b600060208201905081810360008301526131dd816131a1565b9050919050565b7f5369676e657220616e64207369676e617475726520646f206e6f74206d61746360008201527f6800000000000000000000000000000000000000000000000000000000000000602082015250565b6000613240602183613141565b915061324b826131e4565b604082019050919050565b6000602082019050818103600083015261326f81613233565b9050919050565b600081905092915050565b600061328c82612db2565b6132968185613276565b93506132a6818560208601612dce565b80840191505092915050565b60008160601b9050919050565b60006132ca826132b2565b9050919050565b60006132dc826132bf565b9050919050565b6132f46132ef82612b28565b6132d1565b82525050565b60006133068285613281565b915061331282846132e3565b6014820191508190509392505050565b600061332e8284613281565b915081905092915050565b7f46756e6374696f6e2063616c6c206e6f74207375636365737366756c00000000600082015250565b600061336f601c83613141565b915061337a82613339565b602082019050919050565b6000602082019050818103600083015261339e81613362565b9050919050565b60006133b082612b08565b9050919050565b6133c0816133a5565b82525050565b60006060820190506133db6000830186612f16565b6133e860208301856133b7565b81810360408301526133fa8184612e01565b9050949350505050565b7f54696d654c6f636b3a20436f6e74726163742062616c616e636520696e73756660008201527f66696369656e7400000000000000000000000000000000000000000000000000602082015250565b6000613460602783613141565b915061346b82613404565b604082019050919050565b6000602082019050818103600083015261348f81613453565b9050919050565b7f54696d654c6f636b3a205769746864726177207265717565737420677265617460008201527f6572207468616e206465706f73697420616d6f756e7400000000000000000000602082015250565b60006134f2603683613141565b91506134fd82613496565b604082019050919050565b60006020820190508181036000830152613521816134e5565b9050919050565b7f54696d654c6f636b3a2045746865722063757272656e746c7920756e6465722060008201527f74696d656c6f636b20706572696f640000000000000000000000000000000000602082015250565b6000613584602f83613141565b915061358f82613528565b604082019050919050565b600060208201905081810360008301526135b381613577565b9050919050565b60006135c582612e5c565b91506135d083612e5c565b9250828210156135e3576135e2613013565b5b828203905092915050565b50565b60006135fe600083613276565b9150613609826135ee565b600082019050919050565b600061361f826135f1565b9150819050919050565b7f54696d654c6f636b3a204574686572207472616e73666572206661696c656400600082015250565b600061365f601f83613141565b915061366a82613629565b602082019050919050565b6000602082019050818103600083015261368e81613652565b9050919050565b60006040820190506136aa6000830185612f16565b6136b76020830184612eec565b9392505050565b7f54696d654c6f636b3a20546f6b656e20776173206e6f7420737570706f72746560008201527f6400000000000000000000000000000000000000000000000000000000000000602082015250565b600061371a602183613141565b9150613725826136be565b604082019050919050565b600060208201905081810360008301526137498161370d565b9050919050565b60008151905061375f81612e66565b92915050565b60006020828403121561377b5761377a612a5b565b5b600061378984828501613750565b91505092915050565b7f54696d654c6f636b3a204e6f7420612076616c6964204552433230206164647260008201527f6573730000000000000000000000000000000000000000000000000000000000602082015250565b60006137ee602383613141565b91506137f982613792565b604082019050919050565b6000602082019050818103600083015261381d816137e1565b9050919050565b7f54696d654c6f636b3a20546f6b656e20616c726561647920737570706f72746560008201527f6400000000000000000000000000000000000000000000000000000000000000602082015250565b6000613880602183613141565b915061388b82613824565b604082019050919050565b600060208201905081810360008301526138af81613873565b9050919050565b7f54696d656c6f636b3a20546f6b656e20416464726573732063757272656e746c60008201527f79206e6f7420737570706f727465640000000000000000000000000000000000602082015250565b6000613912602f83613141565b915061391d826138b6565b604082019050919050565b6000602082019050818103600083015261394181613905565b9050919050565b7f54696d654c6f636b202d3e2045524332303a20557365722062616c616e63652060008201527f696e73756666696369656e740000000000000000000000000000000000000000602082015250565b60006139a4602c83613141565b91506139af82613948565b604082019050919050565b600060208201905081810360008301526139d381613997565b9050919050565b60006040820190506139ef6000830185612f16565b6139fc6020830184612f16565b9392505050565b7f54696d654c6f636b202d3e2045524332303a20416c6c6f77616e636520696e7360008201527f756666696369656e740000000000000000000000000000000000000000000000602082015250565b6000613a5f602983613141565b9150613a6a82613a03565b604082019050919050565b60006020820190508181036000830152613a8e81613a52565b9050919050565b6000606082019050613aaa6000830186612f16565b613ab76020830185612f16565b613ac46040830184612eec565b949350505050565b613ad581612ad2565b8114613ae057600080fd5b50565b600081519050613af281613acc565b92915050565b600060208284031215613b0e57613b0d612a5b565b5b6000613b1c84828501613ae3565b91505092915050565b7f54696d654c6f636b202d3e2045524332303a20436f6e74726163742062616c6160008201527f6e636520696e73756666696369656e7400000000000000000000000000000000602082015250565b6000613b81603083613141565b9150613b8c82613b25565b604082019050919050565b60006020820190508181036000830152613bb081613b74565b9050919050565b7f54696d654c6f636b3a20546f6b656e732063757272656e746c7920756e64657260008201527f2074696d656c6f636b20706572696f6400000000000000000000000000000000602082015250565b6000613c13603083613141565b9150613c1e82613bb7565b604082019050919050565b60006020820190508181036000830152613c4281613c06565b9050919050565b7f54696d656c6f636b3a20566f7563686572206e6f74207369676e65642062792060008201527f7573657200000000000000000000000000000000000000000000000000000000602082015250565b6000613ca5602483613141565b9150613cb082613c49565b604082019050919050565b60006020820190508181036000830152613cd481613c98565b9050919050565b6000819050919050565b613cf6613cf182612e5c565b613cdb565b82525050565b6000613d0882866132e3565b601482019150613d1882856132e3565b601482019150613d288284613ce5565b602082019150819050949350505050565b7f4f776e61626c653a206e6577206f776e657220697320746865207a65726f206160008201527f6464726573730000000000000000000000000000000000000000000000000000602082015250565b6000613d95602683613141565b9150613da082613d39565b604082019050919050565b60006020820190508181036000830152613dc481613d88565b9050919050565b600081905092915050565b7f19457468657265756d205369676e6564204d6573736167653a0a333200000000600082015250565b6000613e0c601c83613dcb565b9150613e1782613dd6565b601c82019050919050565b6000819050919050565b613e3d613e3882612cac565b613e22565b82525050565b6000613e4e82613dff565b9150613e5a8284613e2c565b60208201915081905092915050565b613e7281612ce2565b82525050565b6000608082019050613e8d6000830187612fe9565b613e9a6020830186613e69565b613ea76040830185612fe9565b613eb46060830184612fe9565b95945050505050565b7f496e76616c6964207369676e6174757265000000000000000000000000000000600082015250565b6000613ef3601183613141565b9150613efe82613ebd565b602082019050919050565b60006020820190508181036000830152613f2281613ee6565b9050919050565b7f4f776e61626c653a2063616c6c6572206973206e6f7420746865206f776e6572600082015250565b6000613f5f602083613141565b9150613f6a82613f29565b602082019050919050565b60006020820190508181036000830152613f8e81613f52565b9050919050565b7f696e76616c6964207369676e6174757265206c656e6774680000000000000000600082015250565b6000613fcb601883613141565b9150613fd682613f95565b602082019050919050565b60006020820190508181036000830152613ffa81613fbe565b9050919050565b60006080820190506140166000830187612fe9565b6140236020830186612eec565b6140306040830185612f16565b61403d6060830184612fe9565b95945050505050565b7f1901000000000000000000000000000000000000000000000000000000000000600082015250565b600061407c600283613dcb565b915061408782614046565b600282019050919050565b600061409d8261406f565b91506140a98285613e2c565b6020820191506140b98284613e2c565b602082019150819050939250505056fe4d6574615472616e73616374696f6e2875696e74323536206e6f6e63652c616464726573732066726f6d2c62797465732066756e6374696f6e5369676e617475726529a26469706673582212205b9709864187bc9c16e79ca4fc815c1879f968f864cb196436f794ce17890d8f64736f6c63430008090033454950373132446f6d61696e28737472696e67206e616d652c737472696e672076657273696f6e2c6164647265737320766572696679696e67436f6e74726163742c627974657333322073616c7429",
  "linkReferences": {},
  "deployedLinkReferences": {}
}