{
  "_format": "hh-sol-artifact-1",
  "contractName": "TimeLock",
  "sourceName": "blockchain/contracts/TimeLock.sol",
  "abi": [
    {
      "inputs": [
        {
          "internalType": "uint256",
          "name": "_timelockPeriod",
          "type": "uint256"
        },
        {
          "internalType": "address",
          "name": "_tokenAddress",
          "type": "address"
        },
        {
          "internalType": "address",
          "name": "_trustedForwarder",
          "type": "address"
        }
      ],
      "stateMutability": "nonpayable",
      "type": "constructor"
    },
    {
      "anonymous": false,
      "inputs": [
        {
          "indexed": true,
          "internalType": "address",
          "name": "previousOwner",
          "type": "address"
        },
        {
          "indexed": true,
          "internalType": "address",
          "name": "newOwner",
          "type": "address"
        }
      ],
      "name": "OwnershipTransferred",
      "type": "event"
    },
    {
      "anonymous": false,
      "inputs": [
        {
          "indexed": false,
          "internalType": "address",
          "name": "token",
          "type": "address"
        },
        {
          "indexed": false,
          "internalType": "uint256",
          "name": "amount",
          "type": "uint256"
        },
        {
          "indexed": false,
          "internalType": "uint256",
          "name": "timelocked",
          "type": "uint256"
        }
      ],
      "name": "depositStatus",
      "type": "event"
    },
    {
      "anonymous": false,
      "inputs": [
        {
          "indexed": false,
          "internalType": "address",
          "name": "token",
          "type": "address"
        },
        {
          "indexed": false,
          "internalType": "uint256",
          "name": "amount",
          "type": "uint256"
        }
      ],
      "name": "withdrawStatus",
      "type": "event"
    },
    {
      "stateMutability": "payable",
      "type": "fallback"
    },
    {
      "inputs": [
        {
          "internalType": "address",
          "name": "_tokenAddress",
          "type": "address"
        }
      ],
      "name": "addNewToken",
      "outputs": [],
      "stateMutability": "nonpayable",
      "type": "function"
    },
    {
      "inputs": [
        {
          "internalType": "address",
          "name": "",
          "type": "address"
        },
        {
          "internalType": "address",
          "name": "",
          "type": "address"
        }
      ],
      "name": "depositData",
      "outputs": [
        {
          "internalType": "uint256",
          "name": "amount",
          "type": "uint256"
        },
        {
          "internalType": "uint256",
          "name": "timelocked",
          "type": "uint256"
        }
      ],
      "stateMutability": "view",
      "type": "function"
    },
    {
      "inputs": [
        {
          "internalType": "address",
          "name": "_token",
          "type": "address"
        },
        {
          "internalType": "uint256",
          "name": "_amount",
          "type": "uint256"
        }
      ],
      "name": "depositERC20",
      "outputs": [],
      "stateMutability": "nonpayable",
      "type": "function"
    },
    {
      "inputs": [],
      "name": "depositEther",
      "outputs": [],
      "stateMutability": "payable",
      "type": "function"
    },
    {
      "inputs": [
        {
          "internalType": "uint256",
          "name": "_timelockPeriod",
          "type": "uint256"
        }
      ],
      "name": "editTimelockPeriod",
      "outputs": [],
      "stateMutability": "nonpayable",
      "type": "function"
    },
    {
      "inputs": [],
      "name": "getEtherBalance",
      "outputs": [
        {
          "internalType": "uint256",
          "name": "",
          "type": "uint256"
        }
      ],
      "stateMutability": "view",
      "type": "function"
    },
    {
      "inputs": [
        {
          "components": [
            {
              "internalType": "address",
              "name": "user",
              "type": "address"
            },
            {
              "internalType": "address",
              "name": "token",
              "type": "address"
            },
            {
              "internalType": "uint256",
              "name": "amount",
              "type": "uint256"
            },
            {
              "internalType": "bytes",
              "name": "signature",
              "type": "bytes"
            }
          ],
          "internalType": "struct TimeLock.withdrawVoucher",
          "name": "_voucher",
          "type": "tuple"
        }
      ],
      "name": "getVoucherHash",
      "outputs": [
        {
          "internalType": "bytes32",
          "name": "",
          "type": "bytes32"
        }
      ],
      "stateMutability": "pure",
      "type": "function"
    },
    {
      "inputs": [
        {
          "internalType": "address",
          "name": "forwarder",
          "type": "address"
        }
      ],
      "name": "isTrustedForwarder",
      "outputs": [
        {
          "internalType": "bool",
          "name": "",
          "type": "bool"
        }
      ],
      "stateMutability": "view",
      "type": "function"
    },
    {
      "inputs": [],
      "name": "owner",
      "outputs": [
        {
          "internalType": "address",
          "name": "",
          "type": "address"
        }
      ],
      "stateMutability": "view",
      "type": "function"
    },
    {
      "inputs": [
        {
          "internalType": "address",
          "name": "_tokenAddress",
          "type": "address"
        }
      ],
      "name": "removeTokenSupport",
      "outputs": [],
      "stateMutability": "nonpayable",
      "type": "function"
    },
    {
      "inputs": [],
      "name": "renounceOwnership",
      "outputs": [],
      "stateMutability": "nonpayable",
      "type": "function"
    },
    {
      "inputs": [
        {
          "internalType": "address",
          "name": "",
          "type": "address"
        }
      ],
      "name": "supportedTokens",
      "outputs": [
        {
          "internalType": "bool",
          "name": "",
          "type": "bool"
        }
      ],
      "stateMutability": "view",
      "type": "function"
    },
    {
      "inputs": [],
      "name": "timelockPeriod",
      "outputs": [
        {
          "internalType": "uint256",
          "name": "",
          "type": "uint256"
        }
      ],
      "stateMutability": "view",
      "type": "function"
    },
    {
      "inputs": [
        {
          "internalType": "address",
          "name": "newOwner",
          "type": "address"
        }
      ],
      "name": "transferOwnership",
      "outputs": [],
      "stateMutability": "nonpayable",
      "type": "function"
    },
    {
      "inputs": [
        {
          "components": [
            {
              "internalType": "address",
              "name": "user",
              "type": "address"
            },
            {
              "internalType": "address",
              "name": "token",
              "type": "address"
            },
            {
              "internalType": "uint256",
              "name": "amount",
              "type": "uint256"
            },
            {
              "internalType": "bytes",
              "name": "signature",
              "type": "bytes"
            }
          ],
          "internalType": "struct TimeLock.withdrawVoucher",
          "name": "_voucher",
          "type": "tuple"
        }
      ],
      "name": "verify",
      "outputs": [
        {
          "internalType": "bool",
          "name": "",
          "type": "bool"
        }
      ],
      "stateMutability": "pure",
      "type": "function"
    },
    {
      "inputs": [
        {
          "internalType": "address",
          "name": "_token",
          "type": "address"
        },
        {
          "internalType": "uint256",
          "name": "_amount",
          "type": "uint256"
        }
      ],
      "name": "withdrawERC20Direct",
      "outputs": [],
      "stateMutability": "nonpayable",
      "type": "function"
    },
    {
      "inputs": [
        {
          "internalType": "uint256",
          "name": "_amount",
          "type": "uint256"
        }
      ],
      "name": "withdrawEtherDirect",
      "outputs": [],
      "stateMutability": "nonpayable",
      "type": "function"
    },
    {
      "inputs": [
        {
          "components": [
            {
              "internalType": "address",
              "name": "user",
              "type": "address"
            },
            {
              "internalType": "address",
              "name": "token",
              "type": "address"
            },
            {
              "internalType": "uint256",
              "name": "amount",
              "type": "uint256"
            },
            {
              "internalType": "bytes",
              "name": "signature",
              "type": "bytes"
            }
          ],
          "internalType": "struct TimeLock.withdrawVoucher",
          "name": "_voucher",
          "type": "tuple"
        }
      ],
      "name": "withdrawWithVoucher",
      "outputs": [],
      "stateMutability": "nonpayable",
      "type": "function"
    },
    {
      "stateMutability": "payable",
      "type": "receive"
    }
  ],
  "bytecode": "0x60a06040523480156200001157600080fd5b5060405162003b6338038062003b6383398181016040528101906200003791906200041d565b808073ffffffffffffffffffffffffffffffffffffffff1660808173ffffffffffffffffffffffffffffffffffffffff168152505050600160008190555062000095620000896200020a60201b60201c565b6200022660201b60201c565b60008273ffffffffffffffffffffffffffffffffffffffff166318160ddd6040518163ffffffff1660e01b815260040160206040518083038186803b158015620000de57600080fd5b505afa158015620000f3573d6000803e3d6000fd5b505050506040513d601f19601f8201168201806040525081019062000119919062000479565b116200015c576040517f08c379a000000000000000000000000000000000000000000000000000000000815260040162000153906200050c565b60405180910390fd5b600a8311620001a2576040517f08c379a00000000000000000000000000000000000000000000000000000000081526004016200019990620005a4565b60405180910390fd5b826002819055506001600360008473ffffffffffffffffffffffffffffffffffffffff1673ffffffffffffffffffffffffffffffffffffffff16815260200190815260200160002060006101000a81548160ff021916908315150217905550505050620005c6565b600062000221620002ec60201b620022bb1760201c565b905090565b6000600160009054906101000a900473ffffffffffffffffffffffffffffffffffffffff16905081600160006101000a81548173ffffffffffffffffffffffffffffffffffffffff021916908373ffffffffffffffffffffffffffffffffffffffff1602179055508173ffffffffffffffffffffffffffffffffffffffff168173ffffffffffffffffffffffffffffffffffffffff167f8be0079c531659141344cd1fd0a4f28419497f9722a3daafe3b4186f6b6457e060405160405180910390a35050565b6000620002ff336200033660201b60201c565b156200031557601436033560601c905062000332565b6200032a6200037060201b620022ed1760201c565b905062000333565b5b90565b600060805173ffffffffffffffffffffffffffffffffffffffff168273ffffffffffffffffffffffffffffffffffffffff16149050919050565b600033905090565b600080fd5b6000819050919050565b62000392816200037d565b81146200039e57600080fd5b50565b600081519050620003b28162000387565b92915050565b600073ffffffffffffffffffffffffffffffffffffffff82169050919050565b6000620003e582620003b8565b9050919050565b620003f781620003d8565b81146200040357600080fd5b50565b6000815190506200041781620003ec565b92915050565b60008060006060848603121562000439576200043862000378565b5b60006200044986828701620003a1565b93505060206200045c8682870162000406565b92505060406200046f8682870162000406565b9150509250925092565b60006020828403121562000492576200049162000378565b5b6000620004a284828501620003a1565b91505092915050565b600082825260208201905092915050565b7f4e6f7420612076616c6964204552433230206164647265737300000000000000600082015250565b6000620004f4601983620004ab565b91506200050182620004bc565b602082019050919050565b600060208201905081810360008301526200052781620004e5565b9050919050565b7f54696d656c6f636b2073686f756c642062652067726561746572207468616e2060008201527f3130207365636f6e647300000000000000000000000000000000000000000000602082015250565b60006200058c602a83620004ab565b915062000599826200052e565b604082019050919050565b60006020820190508181036000830152620005bf816200057d565b9050919050565b608051613581620005e26000396000610c4601526135816000f3fe60806040526004361061010d5760003560e01c80638da5cb5b11610095578063d3bb4a7711610064578063d3bb4a771461034a578063dbf7036b14610373578063e38a103d146103b1578063ea46193e146103ee578063f2fde38b146104195761011c565b80638da5cb5b146102c357806397feb926146102ee57806398ea5fca14610317578063a3bfba8f146103215761011c565b80632ecaf675116100dc5780632ecaf675146101de578063572b6c051461020957806364db444a1461024657806368c4ac261461026f578063715018a6146102ac5761011c565b80630ab0d85814610126578063120ad470146101635780632ba8d9391461018c5780632dad61cc146101b55761011c565b3661011c5761011a610442565b005b610124610442565b005b34801561013257600080fd5b5061014d6004803603810190610148919061257d565b6106df565b60405161015a91906125e1565b60405180910390f35b34801561016f57600080fd5b5061018a60048036038101906101859190612632565b61079f565b005b34801561019857600080fd5b506101b360048036038101906101ae91906126bd565b610b3b565b005b3480156101c157600080fd5b506101dc60048036038101906101d79190612632565b610c2a565b005b3480156101ea57600080fd5b506101f3610c3c565b60405161020091906126f9565b60405180910390f35b34801561021557600080fd5b50610230600480360381019061022b91906126bd565b610c42565b60405161023d91906125e1565b60405180910390f35b34801561025257600080fd5b5061026d600480360381019061026891906126bd565b610c9a565b005b34801561027b57600080fd5b50610296600480360381019061029191906126bd565b610e4a565b6040516102a391906125e1565b60405180910390f35b3480156102b857600080fd5b506102c1610e6a565b005b3480156102cf57600080fd5b506102d8610e7e565b6040516102e59190612723565b60405180910390f35b3480156102fa57600080fd5b506103156004803603810190610310919061273e565b610ea8565b005b61031f610442565b005b34801561032d57600080fd5b506103486004803603810190610343919061273e565b611411565b005b34801561035657600080fd5b50610371600480360381019061036c919061257d565b6118a1565b005b34801561037f57600080fd5b5061039a6004803603810190610395919061277e565b6121a2565b6040516103a89291906127be565b60405180910390f35b3480156103bd57600080fd5b506103d860048036038101906103d3919061257d565b6121d3565b6040516103e59190612800565b60405180910390f35b3480156103fa57600080fd5b5061040361222f565b60405161041091906126f9565b60405180910390f35b34801561042557600080fd5b50610440600480360381019061043b91906126bd565b612237565b005b6000600460006104506122f5565b73ffffffffffffffffffffffffffffffffffffffff1673ffffffffffffffffffffffffffffffffffffffff16815260200190815260200160002060008073ffffffffffffffffffffffffffffffffffffffff1673ffffffffffffffffffffffffffffffffffffffff168152602001908152602001600020905060405180604001604052803483600001546104e4919061284a565b8152602001600254426104f7919061284a565b815250600460006105066122f5565b73ffffffffffffffffffffffffffffffffffffffff1673ffffffffffffffffffffffffffffffffffffffff16815260200190815260200160002060008073ffffffffffffffffffffffffffffffffffffffff1673ffffffffffffffffffffffffffffffffffffffff16815260200190815260200160002060008201518160000155602082015181600101559050507f33103a19e775ef0c670e4914d03fa17e694563cf1c33ffcc1a33fd4514a335f16000600460006105c36122f5565b73ffffffffffffffffffffffffffffffffffffffff1673ffffffffffffffffffffffffffffffffffffffff16815260200190815260200160002060008073ffffffffffffffffffffffffffffffffffffffff1673ffffffffffffffffffffffffffffffffffffffff168152602001908152602001600020600001546004600061064a6122f5565b73ffffffffffffffffffffffffffffffffffffffff1673ffffffffffffffffffffffffffffffffffffffff16815260200190815260200160002060008073ffffffffffffffffffffffffffffffffffffffff1673ffffffffffffffffffffffffffffffffffffffff168152602001908152602001600020600101546040516106d4939291906128a0565b60405180910390a150565b6000806106eb836121d3565b905060006106f882612304565b905083600001602081019061070d91906126bd565b73ffffffffffffffffffffffffffffffffffffffff1661077f8286806060019061073791906128e6565b8080601f016020809104026020016040519081016040528093929190818152602001838380828437600081840152601f19601f82011690508083019250505050505050612334565b73ffffffffffffffffffffffffffffffffffffffff161492505050919050565b804710156107e2576040517f08c379a00000000000000000000000000000000000000000000000000000000081526004016107d9906129cc565b60405180910390fd5b6000600460006107f06122f5565b73ffffffffffffffffffffffffffffffffffffffff1673ffffffffffffffffffffffffffffffffffffffff16815260200190815260200160002060008073ffffffffffffffffffffffffffffffffffffffff1673ffffffffffffffffffffffffffffffffffffffff168152602001908152602001600020905081816000015410156108b0576040517f08c379a00000000000000000000000000000000000000000000000000000000081526004016108a790612a5e565b60405180910390fd5b428160010154106108f6576040517f08c379a00000000000000000000000000000000000000000000000000000000081526004016108ed90612af0565b60405180910390fd5b60405180604001604052808383600001546109119190612b10565b81526020016001426109239190612b10565b815250600460006109326122f5565b73ffffffffffffffffffffffffffffffffffffffff1673ffffffffffffffffffffffffffffffffffffffff16815260200190815260200160002060008073ffffffffffffffffffffffffffffffffffffffff1673ffffffffffffffffffffffffffffffffffffffff16815260200190815260200160002060008201518160000155602082015181600101559050506000806109cb6122f5565b73ffffffffffffffffffffffffffffffffffffffff16846040516109ee90612b75565b60006040518083038185875af1925050503d8060008114610a2b576040519150601f19603f3d011682016040523d82523d6000602084013e610a30565b606091505b509150915081610a75576040517f08c379a0000000000000000000000000000000000000000000000000000000008152600401610a6c90612bd6565b60405180910390fd5b7f9f0ef79661998636b280db09179f359f3e73caf44f82307c07d2dad6a9752c6c600060046000610aa46122f5565b73ffffffffffffffffffffffffffffffffffffffff1673ffffffffffffffffffffffffffffffffffffffff16815260200190815260200160002060008073ffffffffffffffffffffffffffffffffffffffff1673ffffffffffffffffffffffffffffffffffffffff16815260200190815260200160002060000154604051610b2d929190612bf6565b60405180910390a150505050565b610b436123a3565b600360008273ffffffffffffffffffffffffffffffffffffffff1673ffffffffffffffffffffffffffffffffffffffff16815260200190815260200160002060009054906101000a900460ff16610bcf576040517f08c379a0000000000000000000000000000000000000000000000000000000008152600401610bc690612c91565b60405180910390fd5b6000600360008373ffffffffffffffffffffffffffffffffffffffff1673ffffffffffffffffffffffffffffffffffffffff16815260200190815260200160002060006101000a81548160ff02191690831515021790555050565b610c326123a3565b8060028190555050565b60025481565b60007f000000000000000000000000000000000000000000000000000000000000000073ffffffffffffffffffffffffffffffffffffffff168273ffffffffffffffffffffffffffffffffffffffff16149050919050565b610ca26123a3565b60008173ffffffffffffffffffffffffffffffffffffffff166318160ddd6040518163ffffffff1660e01b815260040160206040518083038186803b158015610cea57600080fd5b505afa158015610cfe573d6000803e3d6000fd5b505050506040513d601f19601f82011682018060405250810190610d229190612cc6565b11610d62576040517f08c379a0000000000000000000000000000000000000000000000000000000008152600401610d5990612d65565b60405180910390fd5b600360008273ffffffffffffffffffffffffffffffffffffffff1673ffffffffffffffffffffffffffffffffffffffff16815260200190815260200160002060009054906101000a900460ff1615610def576040517f08c379a0000000000000000000000000000000000000000000000000000000008152600401610de690612df7565b60405180910390fd5b6001600360008373ffffffffffffffffffffffffffffffffffffffff1673ffffffffffffffffffffffffffffffffffffffff16815260200190815260200160002060006101000a81548160ff02191690831515021790555050565b60036020528060005260406000206000915054906101000a900460ff1681565b610e726123a3565b610e7c6000612421565b565b6000600160009054906101000a900473ffffffffffffffffffffffffffffffffffffffff16905090565b81600360008273ffffffffffffffffffffffffffffffffffffffff1673ffffffffffffffffffffffffffffffffffffffff16815260200190815260200160002060009054906101000a900460ff16610f35576040517f08c379a0000000000000000000000000000000000000000000000000000000008152600401610f2c90612e89565b60405180910390fd5b818373ffffffffffffffffffffffffffffffffffffffff166370a08231610f5a6122f5565b6040518263ffffffff1660e01b8152600401610f769190612723565b60206040518083038186803b158015610f8e57600080fd5b505afa158015610fa2573d6000803e3d6000fd5b505050506040513d601f19601f82011682018060405250810190610fc69190612cc6565b1015611007576040517f08c379a0000000000000000000000000000000000000000000000000000000008152600401610ffe90612f1b565b60405180910390fd5b818373ffffffffffffffffffffffffffffffffffffffff1663dd62ed3e61102c6122f5565b306040518363ffffffff1660e01b815260040161104a929190612f3b565b60206040518083038186803b15801561106257600080fd5b505afa158015611076573d6000803e3d6000fd5b505050506040513d601f19601f8201168201806040525081019061109a9190612cc6565b10156110db576040517f08c379a00000000000000000000000000000000000000000000000000000000081526004016110d290612fd6565b60405180910390fd5b8273ffffffffffffffffffffffffffffffffffffffff166323b872dd6110ff6122f5565b30856040518463ffffffff1660e01b815260040161111f93929190612ff6565b602060405180830381600087803b15801561113957600080fd5b505af115801561114d573d6000803e3d6000fd5b505050506040513d601f19601f820116820180604052508101906111719190613059565b506000600460006111806122f5565b73ffffffffffffffffffffffffffffffffffffffff1673ffffffffffffffffffffffffffffffffffffffff16815260200190815260200160002060008573ffffffffffffffffffffffffffffffffffffffff1673ffffffffffffffffffffffffffffffffffffffff16815260200190815260200160002090506040518060400160405280848360000154611214919061284a565b815260200160025442611227919061284a565b815250600460006112366122f5565b73ffffffffffffffffffffffffffffffffffffffff1673ffffffffffffffffffffffffffffffffffffffff16815260200190815260200160002060008673ffffffffffffffffffffffffffffffffffffffff1673ffffffffffffffffffffffffffffffffffffffff16815260200190815260200160002060008201518160000155602082015181600101559050507f33103a19e775ef0c670e4914d03fa17e694563cf1c33ffcc1a33fd4514a335f184600460006112f26122f5565b73ffffffffffffffffffffffffffffffffffffffff1673ffffffffffffffffffffffffffffffffffffffff16815260200190815260200160002060008773ffffffffffffffffffffffffffffffffffffffff1673ffffffffffffffffffffffffffffffffffffffff16815260200190815260200160002060000154600460006113796122f5565b73ffffffffffffffffffffffffffffffffffffffff1673ffffffffffffffffffffffffffffffffffffffff16815260200190815260200160002060008873ffffffffffffffffffffffffffffffffffffffff1673ffffffffffffffffffffffffffffffffffffffff16815260200190815260200160002060010154604051611403939291906128a0565b60405180910390a150505050565b81600360008273ffffffffffffffffffffffffffffffffffffffff1673ffffffffffffffffffffffffffffffffffffffff16815260200190815260200160002060009054906101000a900460ff1661149e576040517f08c379a000000000000000000000000000000000000000000000000000000000815260040161149590612e89565b60405180910390fd5b818373ffffffffffffffffffffffffffffffffffffffff166370a08231306040518263ffffffff1660e01b81526004016114d89190612723565b60206040518083038186803b1580156114f057600080fd5b505afa158015611504573d6000803e3d6000fd5b505050506040513d601f19601f820116820180604052508101906115289190612cc6565b1015611569576040517f08c379a0000000000000000000000000000000000000000000000000000000008152600401611560906130f8565b60405180910390fd5b6000600460006115776122f5565b73ffffffffffffffffffffffffffffffffffffffff1673ffffffffffffffffffffffffffffffffffffffff16815260200190815260200160002060008573ffffffffffffffffffffffffffffffffffffffff1673ffffffffffffffffffffffffffffffffffffffff16815260200190815260200160002090508281600001541015611637576040517f08c379a000000000000000000000000000000000000000000000000000000000815260040161162e90612a5e565b60405180910390fd5b4281600101541061167d576040517f08c379a00000000000000000000000000000000000000000000000000000000081526004016116749061318a565b60405180910390fd5b60405180604001604052808483600001546116989190612b10565b81526020016001426116aa9190612b10565b815250600460006116b96122f5565b73ffffffffffffffffffffffffffffffffffffffff1673ffffffffffffffffffffffffffffffffffffffff16815260200190815260200160002060008673ffffffffffffffffffffffffffffffffffffffff1673ffffffffffffffffffffffffffffffffffffffff16815260200190815260200160002060008201518160000155602082015181600101559050508373ffffffffffffffffffffffffffffffffffffffff1663a9059cbb61176b6122f5565b856040518363ffffffff1660e01b8152600401611789929190612bf6565b602060405180830381600087803b1580156117a357600080fd5b505af11580156117b7573d6000803e3d6000fd5b505050506040513d601f19601f820116820180604052508101906117db9190613059565b507f9f0ef79661998636b280db09179f359f3e73caf44f82307c07d2dad6a9752c6c846004600061180a6122f5565b73ffffffffffffffffffffffffffffffffffffffff1673ffffffffffffffffffffffffffffffffffffffff16815260200190815260200160002060008073ffffffffffffffffffffffffffffffffffffffff1673ffffffffffffffffffffffffffffffffffffffff16815260200190815260200160002060000154604051611893929190612bf6565b60405180910390a150505050565b6118aa816106df565b6118e9576040517f08c379a00000000000000000000000000000000000000000000000000000000081526004016118e09061321c565b60405180910390fd5b600073ffffffffffffffffffffffffffffffffffffffff1681602001602081019061191491906126bd565b73ffffffffffffffffffffffffffffffffffffffff161415611d0a578060400135471015611977576040517f08c379a000000000000000000000000000000000000000000000000000000000815260040161196e906129cc565b60405180910390fd5b60006004600083600001602081019061199091906126bd565b73ffffffffffffffffffffffffffffffffffffffff1673ffffffffffffffffffffffffffffffffffffffff16815260200190815260200160002060008073ffffffffffffffffffffffffffffffffffffffff1673ffffffffffffffffffffffffffffffffffffffff1681526020019081526020016000209050816040013581600001541015611a54576040517f08c379a0000000000000000000000000000000000000000000000000000000008152600401611a4b90612a5e565b60405180910390fd5b42816001015410611a9a576040517f08c379a0000000000000000000000000000000000000000000000000000000008152600401611a9190612af0565b60405180910390fd5b604051806040016040528083604001358360000154611ab99190612b10565b8152602001600142611acb9190612b10565b81525060046000846000016020810190611ae591906126bd565b73ffffffffffffffffffffffffffffffffffffffff1673ffffffffffffffffffffffffffffffffffffffff16815260200190815260200160002060008073ffffffffffffffffffffffffffffffffffffffff1673ffffffffffffffffffffffffffffffffffffffff1681526020019081526020016000206000820151816000015560208201518160010155905050600080836000016020810190611b8991906126bd565b73ffffffffffffffffffffffffffffffffffffffff168460400135604051611bb090612b75565b60006040518083038185875af1925050503d8060008114611bed576040519150601f19603f3d011682016040523d82523d6000602084013e611bf2565b606091505b509150915081611c37576040517f08c379a0000000000000000000000000000000000000000000000000000000008152600401611c2e90612bd6565b60405180910390fd5b7f9f0ef79661998636b280db09179f359f3e73caf44f82307c07d2dad6a9752c6c600060046000876000016020810190611c7191906126bd565b73ffffffffffffffffffffffffffffffffffffffff1673ffffffffffffffffffffffffffffffffffffffff16815260200190815260200160002060008073ffffffffffffffffffffffffffffffffffffffff1673ffffffffffffffffffffffffffffffffffffffff16815260200190815260200160002060000154604051611cfa929190612bf6565b60405180910390a150505061219f565b8060400135816020016020810190611d2291906126bd565b73ffffffffffffffffffffffffffffffffffffffff166370a08231306040518263ffffffff1660e01b8152600401611d5a9190612723565b60206040518083038186803b158015611d7257600080fd5b505afa158015611d86573d6000803e3d6000fd5b505050506040513d601f19601f82011682018060405250810190611daa9190612cc6565b1015611deb576040517f08c379a0000000000000000000000000000000000000000000000000000000008152600401611de2906130f8565b60405180910390fd5b600060046000836000016020810190611e0491906126bd565b73ffffffffffffffffffffffffffffffffffffffff1673ffffffffffffffffffffffffffffffffffffffff1681526020019081526020016000206000836020016020810190611e5391906126bd565b73ffffffffffffffffffffffffffffffffffffffff1673ffffffffffffffffffffffffffffffffffffffff1681526020019081526020016000209050816040013581600001541015611eda576040517f08c379a0000000000000000000000000000000000000000000000000000000008152600401611ed190612a5e565b60405180910390fd5b42816001015410611f20576040517f08c379a0000000000000000000000000000000000000000000000000000000008152600401611f179061318a565b60405180910390fd5b604051806040016040528083604001358360000154611f3f9190612b10565b8152602001600142611f519190612b10565b81525060046000846000016020810190611f6b91906126bd565b73ffffffffffffffffffffffffffffffffffffffff1673ffffffffffffffffffffffffffffffffffffffff1681526020019081526020016000206000846020016020810190611fba91906126bd565b73ffffffffffffffffffffffffffffffffffffffff1673ffffffffffffffffffffffffffffffffffffffff168152602001908152602001600020600082015181600001556020820151816001015590505081602001602081019061201e91906126bd565b73ffffffffffffffffffffffffffffffffffffffff1663a9059cbb83600001602081019061204c91906126bd565b84604001356040518363ffffffff1660e01b815260040161206e929190612bf6565b602060405180830381600087803b15801561208857600080fd5b505af115801561209c573d6000803e3d6000fd5b505050506040513d601f19601f820116820180604052508101906120c09190613059565b507f9f0ef79661998636b280db09179f359f3e73caf44f82307c07d2dad6a9752c6c8260200160208101906120f591906126bd565b6004600085600001602081019061210c91906126bd565b73ffffffffffffffffffffffffffffffffffffffff1673ffffffffffffffffffffffffffffffffffffffff16815260200190815260200160002060008073ffffffffffffffffffffffffffffffffffffffff1673ffffffffffffffffffffffffffffffffffffffff16815260200190815260200160002060000154604051612195929190612bf6565b60405180910390a1505b50565b6004602052816000526040600020602052806000526040600020600091509150508060000154908060010154905082565b60008160000160208101906121e891906126bd565b8260200160208101906121fb91906126bd565b8360400135604051602001612212939291906132a5565b604051602081830303815290604052805190602001209050919050565b600047905090565b61223f6123a3565b600073ffffffffffffffffffffffffffffffffffffffff168173ffffffffffffffffffffffffffffffffffffffff1614156122af576040517f08c379a00000000000000000000000000000000000000000000000000000000081526004016122a690613354565b60405180910390fd5b6122b881612421565b50565b60006122c633610c42565b156122da57601436033560601c90506122e9565b6122e26122ed565b90506122ea565b5b90565b600033905090565b60006122ff6122bb565b905090565b60008160405160200161231791906133ec565b604051602081830303815290604052805190602001209050919050565b600080600080612343856124e7565b9250925092506001868285856040516000815260200160405260405161236c949392919061342e565b6020604051602081039080840390855afa15801561238e573d6000803e3d6000fd5b50505060206040510351935050505092915050565b6123ab6122f5565b73ffffffffffffffffffffffffffffffffffffffff166123c9610e7e565b73ffffffffffffffffffffffffffffffffffffffff161461241f576040517f08c379a0000000000000000000000000000000000000000000000000000000008152600401612416906134bf565b60405180910390fd5b565b6000600160009054906101000a900473ffffffffffffffffffffffffffffffffffffffff16905081600160006101000a81548173ffffffffffffffffffffffffffffffffffffffff021916908373ffffffffffffffffffffffffffffffffffffffff1602179055508173ffffffffffffffffffffffffffffffffffffffff168173ffffffffffffffffffffffffffffffffffffffff167f8be0079c531659141344cd1fd0a4f28419497f9722a3daafe3b4186f6b6457e060405160405180910390a35050565b60008060006041845114612530576040517f08c379a00000000000000000000000000000000000000000000000000000000081526004016125279061352b565b60405180910390fd5b6020840151925060408401519150606084015160001a90509193909250565b600080fd5b600080fd5b600080fd5b60006080828403121561257457612573612559565b5b81905092915050565b6000602082840312156125935761259261254f565b5b600082013567ffffffffffffffff8111156125b1576125b0612554565b5b6125bd8482850161255e565b91505092915050565b60008115159050919050565b6125db816125c6565b82525050565b60006020820190506125f660008301846125d2565b92915050565b6000819050919050565b61260f816125fc565b811461261a57600080fd5b50565b60008135905061262c81612606565b92915050565b6000602082840312156126485761264761254f565b5b60006126568482850161261d565b91505092915050565b600073ffffffffffffffffffffffffffffffffffffffff82169050919050565b600061268a8261265f565b9050919050565b61269a8161267f565b81146126a557600080fd5b50565b6000813590506126b781612691565b92915050565b6000602082840312156126d3576126d261254f565b5b60006126e1848285016126a8565b91505092915050565b6126f3816125fc565b82525050565b600060208201905061270e60008301846126ea565b92915050565b61271d8161267f565b82525050565b60006020820190506127386000830184612714565b92915050565b600080604083850312156127555761275461254f565b5b6000612763858286016126a8565b92505060206127748582860161261d565b9150509250929050565b600080604083850312156127955761279461254f565b5b60006127a3858286016126a8565b92505060206127b4858286016126a8565b9150509250929050565b60006040820190506127d360008301856126ea565b6127e060208301846126ea565b9392505050565b6000819050919050565b6127fa816127e7565b82525050565b600060208201905061281560008301846127f1565b92915050565b7f4e487b7100000000000000000000000000000000000000000000000000000000600052601160045260246000fd5b6000612855826125fc565b9150612860836125fc565b9250827fffffffffffffffffffffffffffffffffffffffffffffffffffffffffffffffff038211156128955761289461281b565b5b828201905092915050565b60006060820190506128b56000830186612714565b6128c260208301856126ea565b6128cf60408301846126ea565b949350505050565b600080fd5b600080fd5b600080fd5b60008083356001602003843603038112612903576129026128d7565b5b80840192508235915067ffffffffffffffff821115612925576129246128dc565b5b602083019250600182023603831315612941576129406128e1565b5b509250929050565b600082825260208201905092915050565b7f54696d654c6f636b3a20436f6e74726163742062616c616e636520696e73756660008201527f66696369656e7400000000000000000000000000000000000000000000000000602082015250565b60006129b6602783612949565b91506129c18261295a565b604082019050919050565b600060208201905081810360008301526129e5816129a9565b9050919050565b7f54696d654c6f636b3a205769746864726177207265717565737420677265617460008201527f6572207468616e206465706f73697420616d6f756e7400000000000000000000602082015250565b6000612a48603683612949565b9150612a53826129ec565b604082019050919050565b60006020820190508181036000830152612a7781612a3b565b9050919050565b7f54696d654c6f636b3a2045746865722063757272656e746c7920756e6465722060008201527f74696d656c6f636b20706572696f640000000000000000000000000000000000602082015250565b6000612ada602f83612949565b9150612ae582612a7e565b604082019050919050565b60006020820190508181036000830152612b0981612acd565b9050919050565b6000612b1b826125fc565b9150612b26836125fc565b925082821015612b3957612b3861281b565b5b828203905092915050565b600081905092915050565b50565b6000612b5f600083612b44565b9150612b6a82612b4f565b600082019050919050565b6000612b8082612b52565b9150819050919050565b7f54696d654c6f636b3a204574686572207472616e73666572206661696c656400600082015250565b6000612bc0601f83612949565b9150612bcb82612b8a565b602082019050919050565b60006020820190508181036000830152612bef81612bb3565b9050919050565b6000604082019050612c0b6000830185612714565b612c1860208301846126ea565b9392505050565b7f54696d654c6f636b3a20546f6b656e20776173206e6f7420737570706f72746560008201527f6400000000000000000000000000000000000000000000000000000000000000602082015250565b6000612c7b602183612949565b9150612c8682612c1f565b604082019050919050565b60006020820190508181036000830152612caa81612c6e565b9050919050565b600081519050612cc081612606565b92915050565b600060208284031215612cdc57612cdb61254f565b5b6000612cea84828501612cb1565b91505092915050565b7f54696d654c6f636b3a204e6f7420612076616c6964204552433230206164647260008201527f6573730000000000000000000000000000000000000000000000000000000000602082015250565b6000612d4f602383612949565b9150612d5a82612cf3565b604082019050919050565b60006020820190508181036000830152612d7e81612d42565b9050919050565b7f54696d654c6f636b3a20546f6b656e20616c726561647920737570706f72746560008201527f6400000000000000000000000000000000000000000000000000000000000000602082015250565b6000612de1602183612949565b9150612dec82612d85565b604082019050919050565b60006020820190508181036000830152612e1081612dd4565b9050919050565b7f54696d656c6f636b3a20546f6b656e20416464726573732063757272656e746c60008201527f79206e6f7420737570706f727465640000000000000000000000000000000000602082015250565b6000612e73602f83612949565b9150612e7e82612e17565b604082019050919050565b60006020820190508181036000830152612ea281612e66565b9050919050565b7f54696d654c6f636b202d3e2045524332303a20557365722062616c616e63652060008201527f696e73756666696369656e740000000000000000000000000000000000000000602082015250565b6000612f05602c83612949565b9150612f1082612ea9565b604082019050919050565b60006020820190508181036000830152612f3481612ef8565b9050919050565b6000604082019050612f506000830185612714565b612f5d6020830184612714565b9392505050565b7f54696d654c6f636b202d3e2045524332303a20416c6c6f77616e636520696e7360008201527f756666696369656e740000000000000000000000000000000000000000000000602082015250565b6000612fc0602983612949565b9150612fcb82612f64565b604082019050919050565b60006020820190508181036000830152612fef81612fb3565b9050919050565b600060608201905061300b6000830186612714565b6130186020830185612714565b61302560408301846126ea565b949350505050565b613036816125c6565b811461304157600080fd5b50565b6000815190506130538161302d565b92915050565b60006020828403121561306f5761306e61254f565b5b600061307d84828501613044565b91505092915050565b7f54696d654c6f636b202d3e2045524332303a20436f6e74726163742062616c6160008201527f6e636520696e73756666696369656e7400000000000000000000000000000000602082015250565b60006130e2603083612949565b91506130ed82613086565b604082019050919050565b60006020820190508181036000830152613111816130d5565b9050919050565b7f54696d654c6f636b3a20546f6b656e732063757272656e746c7920756e64657260008201527f2074696d656c6f636b20706572696f6400000000000000000000000000000000602082015250565b6000613174603083612949565b915061317f82613118565b604082019050919050565b600060208201905081810360008301526131a381613167565b9050919050565b7f54696d656c6f636b3a20566f7563686572206e6f74207369676e65642062792060008201527f7573657200000000000000000000000000000000000000000000000000000000602082015250565b6000613206602483612949565b9150613211826131aa565b604082019050919050565b60006020820190508181036000830152613235816131f9565b9050919050565b60008160601b9050919050565b60006132548261323c565b9050919050565b600061326682613249565b9050919050565b61327e6132798261267f565b61325b565b82525050565b6000819050919050565b61329f61329a826125fc565b613284565b82525050565b60006132b1828661326d565b6014820191506132c1828561326d565b6014820191506132d1828461328e565b602082019150819050949350505050565b7f4f776e61626c653a206e6577206f776e657220697320746865207a65726f206160008201527f6464726573730000000000000000000000000000000000000000000000000000602082015250565b600061333e602683612949565b9150613349826132e2565b604082019050919050565b6000602082019050818103600083015261336d81613331565b9050919050565b600081905092915050565b7f19457468657265756d205369676e6564204d6573736167653a0a333200000000600082015250565b60006133b5601c83613374565b91506133c08261337f565b601c82019050919050565b6000819050919050565b6133e66133e1826127e7565b6133cb565b82525050565b60006133f7826133a8565b915061340382846133d5565b60208201915081905092915050565b600060ff82169050919050565b61342881613412565b82525050565b600060808201905061344360008301876127f1565b613450602083018661341f565b61345d60408301856127f1565b61346a60608301846127f1565b95945050505050565b7f4f776e61626c653a2063616c6c6572206973206e6f7420746865206f776e6572600082015250565b60006134a9602083612949565b91506134b482613473565b602082019050919050565b600060208201905081810360008301526134d88161349c565b9050919050565b7f696e76616c6964207369676e6174757265206c656e6774680000000000000000600082015250565b6000613515601883612949565b9150613520826134df565b602082019050919050565b6000602082019050818103600083015261354481613508565b905091905056fea264697066735822122019f4fc307c738d015b8d37bb9fe480e5e5c9c30679e72128ce32753819a8b68d64736f6c63430008090033",
  "linkReferences": {},
  "deployedLinkReferences": {}
}