{
  "_format": "hh-sol-artifact-1",
  "contractName": "EIP712MetaTransaction",
  "sourceName": "blockchain/contracts/EIP712MetaTransaction.sol",
  "abi": [
    {
      "inputs": [
        {
          "internalType": "string",
          "name": "name",
          "type": "string"
        },
        {
          "internalType": "string",
          "name": "version",
          "type": "string"
        }
      ],
      "stateMutability": "nonpayable",
      "type": "constructor"
    },
    {
      "anonymous": false,
      "inputs": [
        {
          "indexed": false,
          "internalType": "address",
          "name": "userAddress",
          "type": "address"
        },
        {
          "indexed": false,
          "internalType": "address payable",
          "name": "relayerAddress",
          "type": "address"
        },
        {
          "indexed": false,
          "internalType": "bytes",
          "name": "functionSignature",
          "type": "bytes"
        }
      ],
      "name": "MetaTransactionExecuted",
      "type": "event"
    },
    {
      "inputs": [
        {
          "internalType": "address",
          "name": "userAddress",
          "type": "address"
        },
        {
          "internalType": "bytes",
          "name": "functionSignature",
          "type": "bytes"
        },
        {
          "internalType": "bytes32",
          "name": "sigR",
          "type": "bytes32"
        },
        {
          "internalType": "bytes32",
          "name": "sigS",
          "type": "bytes32"
        },
        {
          "internalType": "uint8",
          "name": "sigV",
          "type": "uint8"
        }
      ],
      "name": "executeMetaTransaction",
      "outputs": [
        {
          "internalType": "bytes",
          "name": "",
          "type": "bytes"
        }
      ],
      "stateMutability": "payable",
      "type": "function"
    },
    {
      "inputs": [
        {
          "internalType": "address",
          "name": "user",
          "type": "address"
        }
      ],
      "name": "getNonce",
      "outputs": [
        {
          "internalType": "uint256",
          "name": "nonce",
          "type": "uint256"
        }
      ],
      "stateMutability": "view",
      "type": "function"
    }
  ],
  "bytecode": "0x60806040523480156200001157600080fd5b50604051620013573803806200135783398181016040528101906200003791906200025f565b81816040518060800160405280604f815260200162001308604f91398051906020012082805190602001208280519060200120306200007b620000ba60201b60201c565b60001b6040516020016200009495949392919062000344565b6040516020818303038152906040528051906020012060008190555050505050620003a1565b600046905090565b6000604051905090565b600080fd5b600080fd5b600080fd5b600080fd5b6000601f19601f8301169050919050565b7f4e487b7100000000000000000000000000000000000000000000000000000000600052604160045260246000fd5b6200012b82620000e0565b810181811067ffffffffffffffff821117156200014d576200014c620000f1565b5b80604052505050565b600062000162620000c2565b905062000170828262000120565b919050565b600067ffffffffffffffff821115620001935762000192620000f1565b5b6200019e82620000e0565b9050602081019050919050565b60005b83811015620001cb578082015181840152602081019050620001ae565b83811115620001db576000848401525b50505050565b6000620001f8620001f28462000175565b62000156565b905082815260208101848484011115620002175762000216620000db565b5b62000224848285620001ab565b509392505050565b600082601f830112620002445762000243620000d6565b5b815162000256848260208601620001e1565b91505092915050565b60008060408385031215620002795762000278620000cc565b5b600083015167ffffffffffffffff8111156200029a5762000299620000d1565b5b620002a8858286016200022c565b925050602083015167ffffffffffffffff811115620002cc57620002cb620000d1565b5b620002da858286016200022c565b9150509250929050565b6000819050919050565b620002f981620002e4565b82525050565b600073ffffffffffffffffffffffffffffffffffffffff82169050919050565b60006200032c82620002ff565b9050919050565b6200033e816200031f565b82525050565b600060a0820190506200035b6000830188620002ee565b6200036a6020830187620002ee565b620003796040830186620002ee565b62000388606083018562000333565b620003976080830184620002ee565b9695505050505050565b610f5780620003b16000396000f3fe6080604052600436106100295760003560e01c80630c53c51c1461002e5780632d0335ab1461005e575b600080fd5b61004860048036038101906100439190610822565b61009b565b6040516100559190610941565b60405180910390f35b34801561006a57600080fd5b5061008560048036038101906100809190610963565b6103bf565b60405161009291906109a9565b60405180910390f35b606060006100a886610408565b90506000357fffffffff00000000000000000000000000000000000000000000000000000000167bffffffffffffffffffffffffffffffffffffffffffffffffffffffff1916817bffffffffffffffffffffffffffffffffffffffffffffffffffffffff1916141561014f576040517f08c379a000000000000000000000000000000000000000000000000000000000815260040161014690610a47565b60405180910390fd5b60006040518060600160405280600160008b73ffffffffffffffffffffffffffffffffffffffff1673ffffffffffffffffffffffffffffffffffffffff1681526020019081526020016000205481526020018973ffffffffffffffffffffffffffffffffffffffff1681526020018881525090506101d0888288888861042c565b61020f576040517f08c379a000000000000000000000000000000000000000000000000000000000815260040161020690610ad9565b60405180910390fd5b61026160018060008b73ffffffffffffffffffffffffffffffffffffffff1673ffffffffffffffffffffffffffffffffffffffff1681526020019081526020016000205461053b90919063ffffffff16565b600160008a73ffffffffffffffffffffffffffffffffffffffff1673ffffffffffffffffffffffffffffffffffffffff168152602001908152602001600020819055506000803073ffffffffffffffffffffffffffffffffffffffff16898b6040516020016102d1929190610b7d565b6040516020818303038152906040526040516102ed9190610ba5565b6000604051808303816000865af19150503d806000811461032a576040519150601f19603f3d011682016040523d82523d6000602084013e61032f565b606091505b509150915081610374576040517f08c379a000000000000000000000000000000000000000000000000000000000815260040161036b90610c08565b60405180910390fd5b7f5845892132946850460bff5a0083f71031bc5bf9aadcd40f1de79423eac9b10b8a338b6040516103a793929190610c58565b60405180910390a18094505050505095945050505050565b6000600160008373ffffffffffffffffffffffffffffffffffffffff1673ffffffffffffffffffffffffffffffffffffffff168152602001908152602001600020549050919050565b6000808251141561041f57600060e01b9050610427565b602082015190505b919050565b600080600161044261043d88610551565b6105b9565b848787604051600081526020016040526040516104629493929190610cb4565b6020604051602081039080840390855afa158015610484573d6000803e3d6000fd5b505050602060405103519050600073ffffffffffffffffffffffffffffffffffffffff168173ffffffffffffffffffffffffffffffffffffffff161415610500576040517f08c379a00000000000000000000000000000000000000000000000000000000081526004016104f790610d45565b60405180910390fd5b8673ffffffffffffffffffffffffffffffffffffffff168173ffffffffffffffffffffffffffffffffffffffff161491505095945050505050565b600081836105499190610d94565b905092915050565b6000604051806080016040528060438152602001610edf60439139805190602001208260000151836020015184604001518051906020012060405160200161059c9493929190610dea565b604051602081830303815290604052805190602001209050919050565b60006105c36105f2565b826040516020016105d5929190610ea7565b604051602081830303815290604052805190602001209050919050565b60008054905090565b6000604051905090565b600080fd5b600080fd5b600073ffffffffffffffffffffffffffffffffffffffff82169050919050565b600061063a8261060f565b9050919050565b61064a8161062f565b811461065557600080fd5b50565b60008135905061066781610641565b92915050565b600080fd5b600080fd5b6000601f19601f8301169050919050565b7f4e487b7100000000000000000000000000000000000000000000000000000000600052604160045260246000fd5b6106c082610677565b810181811067ffffffffffffffff821117156106df576106de610688565b5b80604052505050565b60006106f26105fb565b90506106fe82826106b7565b919050565b600067ffffffffffffffff82111561071e5761071d610688565b5b61072782610677565b9050602081019050919050565b82818337600083830152505050565b600061075661075184610703565b6106e8565b90508281526020810184848401111561077257610771610672565b5b61077d848285610734565b509392505050565b600082601f83011261079a5761079961066d565b5b81356107aa848260208601610743565b91505092915050565b6000819050919050565b6107c6816107b3565b81146107d157600080fd5b50565b6000813590506107e3816107bd565b92915050565b600060ff82169050919050565b6107ff816107e9565b811461080a57600080fd5b50565b60008135905061081c816107f6565b92915050565b600080600080600060a0868803121561083e5761083d610605565b5b600061084c88828901610658565b955050602086013567ffffffffffffffff81111561086d5761086c61060a565b5b61087988828901610785565b945050604061088a888289016107d4565b935050606061089b888289016107d4565b92505060806108ac8882890161080d565b9150509295509295909350565b600081519050919050565b600082825260208201905092915050565b60005b838110156108f35780820151818401526020810190506108d8565b83811115610902576000848401525b50505050565b6000610913826108b9565b61091d81856108c4565b935061092d8185602086016108d5565b61093681610677565b840191505092915050565b6000602082019050818103600083015261095b8184610908565b905092915050565b60006020828403121561097957610978610605565b5b600061098784828501610658565b91505092915050565b6000819050919050565b6109a381610990565b82525050565b60006020820190506109be600083018461099a565b92915050565b600082825260208201905092915050565b7f66756e6374696f6e5369676e61747572652063616e206e6f74206265206f662060008201527f657865637574654d6574615472616e73616374696f6e206d6574686f64000000602082015250565b6000610a31603d836109c4565b9150610a3c826109d5565b604082019050919050565b60006020820190508181036000830152610a6081610a24565b9050919050565b7f5369676e657220616e64207369676e617475726520646f206e6f74206d61746360008201527f6800000000000000000000000000000000000000000000000000000000000000602082015250565b6000610ac36021836109c4565b9150610ace82610a67565b604082019050919050565b60006020820190508181036000830152610af281610ab6565b9050919050565b600081905092915050565b6000610b0f826108b9565b610b198185610af9565b9350610b298185602086016108d5565b80840191505092915050565b60008160601b9050919050565b6000610b4d82610b35565b9050919050565b6000610b5f82610b42565b9050919050565b610b77610b728261062f565b610b54565b82525050565b6000610b898285610b04565b9150610b958284610b66565b6014820191508190509392505050565b6000610bb18284610b04565b915081905092915050565b7f46756e6374696f6e2063616c6c206e6f74207375636365737366756c00000000600082015250565b6000610bf2601c836109c4565b9150610bfd82610bbc565b602082019050919050565b60006020820190508181036000830152610c2181610be5565b9050919050565b610c318161062f565b82525050565b6000610c428261060f565b9050919050565b610c5281610c37565b82525050565b6000606082019050610c6d6000830186610c28565b610c7a6020830185610c49565b8181036040830152610c8c8184610908565b9050949350505050565b610c9f816107b3565b82525050565b610cae816107e9565b82525050565b6000608082019050610cc96000830187610c96565b610cd66020830186610ca5565b610ce36040830185610c96565b610cf06060830184610c96565b95945050505050565b7f496e76616c6964207369676e6174757265000000000000000000000000000000600082015250565b6000610d2f6011836109c4565b9150610d3a82610cf9565b602082019050919050565b60006020820190508181036000830152610d5e81610d22565b9050919050565b7f4e487b7100000000000000000000000000000000000000000000000000000000600052601160045260246000fd5b6000610d9f82610990565b9150610daa83610990565b9250827fffffffffffffffffffffffffffffffffffffffffffffffffffffffffffffffff03821115610ddf57610dde610d65565b5b828201905092915050565b6000608082019050610dff6000830187610c96565b610e0c602083018661099a565b610e196040830185610c28565b610e266060830184610c96565b95945050505050565b600081905092915050565b7f1901000000000000000000000000000000000000000000000000000000000000600082015250565b6000610e70600283610e2f565b9150610e7b82610e3a565b600282019050919050565b6000819050919050565b610ea1610e9c826107b3565b610e86565b82525050565b6000610eb282610e63565b9150610ebe8285610e90565b602082019150610ece8284610e90565b602082019150819050939250505056fe4d6574615472616e73616374696f6e2875696e74323536206e6f6e63652c616464726573732066726f6d2c62797465732066756e6374696f6e5369676e617475726529a2646970667358221220504114f186d7c10569c0a79c017c91f9d7caf0793915b3d9f35f339d6891313664736f6c63430008090033454950373132446f6d61696e28737472696e67206e616d652c737472696e672076657273696f6e2c6164647265737320766572696679696e67436f6e74726163742c627974657333322073616c7429",
  "linkReferences": {},
  "deployedLinkReferences": {}
}