{
  "_format": "hh-sol-artifact-1",
  "contractName": "TestERC20",
  "sourceName": "blockchain/contracts/TestERC20.sol",
  "abi": [
    {
      "inputs": [],
      "stateMutability": "nonpayable",
      "type": "constructor"
    },
    {
      "anonymous": false,
      "inputs": [
        {
          "indexed": true,
          "internalType": "address",
          "name": "owner",
          "type": "address"
        },
        {
          "indexed": true,
          "internalType": "address",
          "name": "spender",
          "type": "address"
        },
        {
          "indexed": false,
          "internalType": "uint256",
          "name": "value",
          "type": "uint256"
        }
      ],
      "name": "Approval",
      "type": "event"
    },
    {
      "anonymous": false,
      "inputs": [
        {
          "indexed": true,
          "internalType": "address",
          "name": "previousOwner",
          "type": "address"
        },
        {
          "indexed": true,
          "internalType": "address",
          "name": "newOwner",
          "type": "address"
        }
      ],
      "name": "OwnershipTransferred",
      "type": "event"
    },
    {
      "anonymous": false,
      "inputs": [
        {
          "indexed": true,
          "internalType": "address",
          "name": "from",
          "type": "address"
        },
        {
          "indexed": true,
          "internalType": "address",
          "name": "to",
          "type": "address"
        },
        {
          "indexed": false,
          "internalType": "uint256",
          "name": "value",
          "type": "uint256"
        }
      ],
      "name": "Transfer",
      "type": "event"
    },
    {
      "inputs": [
        {
          "internalType": "address",
          "name": "owner",
          "type": "address"
        },
        {
          "internalType": "address",
          "name": "spender",
          "type": "address"
        }
      ],
      "name": "allowance",
      "outputs": [
        {
          "internalType": "uint256",
          "name": "",
          "type": "uint256"
        }
      ],
      "stateMutability": "view",
      "type": "function"
    },
    {
      "inputs": [
        {
          "internalType": "address",
          "name": "spender",
          "type": "address"
        },
        {
          "internalType": "uint256",
          "name": "amount",
          "type": "uint256"
        }
      ],
      "name": "approve",
      "outputs": [
        {
          "internalType": "bool",
          "name": "",
          "type": "bool"
        }
      ],
      "stateMutability": "nonpayable",
      "type": "function"
    },
    {
      "inputs": [
        {
          "internalType": "address",
          "name": "account",
          "type": "address"
        }
      ],
      "name": "balanceOf",
      "outputs": [
        {
          "internalType": "uint256",
          "name": "",
          "type": "uint256"
        }
      ],
      "stateMutability": "view",
      "type": "function"
    },
    {
      "inputs": [],
      "name": "decimals",
      "outputs": [
        {
          "internalType": "uint8",
          "name": "",
          "type": "uint8"
        }
      ],
      "stateMutability": "view",
      "type": "function"
    },
    {
      "inputs": [
        {
          "internalType": "address",
          "name": "spender",
          "type": "address"
        },
        {
          "internalType": "uint256",
          "name": "subtractedValue",
          "type": "uint256"
        }
      ],
      "name": "decreaseAllowance",
      "outputs": [
        {
          "internalType": "bool",
          "name": "",
          "type": "bool"
        }
      ],
      "stateMutability": "nonpayable",
      "type": "function"
    },
    {
      "inputs": [
        {
          "internalType": "address",
          "name": "account",
          "type": "address"
        }
      ],
      "name": "getBalanceOf",
      "outputs": [
        {
          "internalType": "uint256",
          "name": "",
          "type": "uint256"
        }
      ],
      "stateMutability": "view",
      "type": "function"
    },
    {
      "inputs": [
        {
          "internalType": "address",
          "name": "spender",
          "type": "address"
        },
        {
          "internalType": "uint256",
          "name": "addedValue",
          "type": "uint256"
        }
      ],
      "name": "increaseAllowance",
      "outputs": [
        {
          "internalType": "bool",
          "name": "",
          "type": "bool"
        }
      ],
      "stateMutability": "nonpayable",
      "type": "function"
    },
    {
      "inputs": [
        {
          "internalType": "address",
          "name": "to",
          "type": "address"
        },
        {
          "internalType": "uint256",
          "name": "amount",
          "type": "uint256"
        }
      ],
      "name": "mint",
      "outputs": [],
      "stateMutability": "nonpayable",
      "type": "function"
    },
    {
      "inputs": [],
      "name": "name",
      "outputs": [
        {
          "internalType": "string",
          "name": "",
          "type": "string"
        }
      ],
      "stateMutability": "view",
      "type": "function"
    },
    {
      "inputs": [],
      "name": "owner",
      "outputs": [
        {
          "internalType": "address",
          "name": "",
          "type": "address"
        }
      ],
      "stateMutability": "view",
      "type": "function"
    },
    {
      "inputs": [],
      "name": "renounceOwnership",
      "outputs": [],
      "stateMutability": "nonpayable",
      "type": "function"
    },
    {
      "inputs": [],
      "name": "symbol",
      "outputs": [
        {
          "internalType": "string",
          "name": "",
          "type": "string"
        }
      ],
      "stateMutability": "view",
      "type": "function"
    },
    {
      "inputs": [],
      "name": "totalSupply",
      "outputs": [
        {
          "internalType": "uint256",
          "name": "",
          "type": "uint256"
        }
      ],
      "stateMutability": "view",
      "type": "function"
    },
    {
      "inputs": [
        {
          "internalType": "address",
          "name": "to",
          "type": "address"
        },
        {
          "internalType": "uint256",
          "name": "amount",
          "type": "uint256"
        }
      ],
      "name": "transfer",
      "outputs": [
        {
          "internalType": "bool",
          "name": "",
          "type": "bool"
        }
      ],
      "stateMutability": "nonpayable",
      "type": "function"
    },
    {
      "inputs": [
        {
          "internalType": "address",
          "name": "from",
          "type": "address"
        },
        {
          "internalType": "address",
          "name": "to",
          "type": "address"
        },
        {
          "internalType": "uint256",
          "name": "amount",
          "type": "uint256"
        }
      ],
      "name": "transferFrom",
      "outputs": [
        {
          "internalType": "bool",
          "name": "",
          "type": "bool"
        }
      ],
      "stateMutability": "nonpayable",
      "type": "function"
    },
    {
      "inputs": [
        {
          "internalType": "address",
          "name": "newOwner",
          "type": "address"
        }
      ],
      "name": "transferOwnership",
      "outputs": [],
      "stateMutability": "nonpayable",
      "type": "function"
    }
  ],
  "bytecode": "0x60806040523480156200001157600080fd5b506040518060400160405280600881526020017f54657374555344430000000000000000000000000000000000000000000000008152506040518060400160405280600581526020017f745553444300000000000000000000000000000000000000000000000000000081525081600390805190602001906200009692919062000343565b508060049080519060200190620000af92919062000343565b505050620000d2620000c6620000f260201b60201c565b620000fa60201b60201c565b620000ec33678ac7230489e80000620001c060201b60201c565b6200059f565b600033905090565b6000600560009054906101000a900473ffffffffffffffffffffffffffffffffffffffff16905081600560006101000a81548173ffffffffffffffffffffffffffffffffffffffff021916908373ffffffffffffffffffffffffffffffffffffffff1602179055508173ffffffffffffffffffffffffffffffffffffffff168173ffffffffffffffffffffffffffffffffffffffff167f8be0079c531659141344cd1fd0a4f28419497f9722a3daafe3b4186f6b6457e060405160405180910390a35050565b600073ffffffffffffffffffffffffffffffffffffffff168273ffffffffffffffffffffffffffffffffffffffff16141562000233576040517f08c379a00000000000000000000000000000000000000000000000000000000081526004016200022a9062000454565b60405180910390fd5b62000247600083836200033960201b60201c565b80600260008282546200025b9190620004af565b92505081905550806000808473ffffffffffffffffffffffffffffffffffffffff1673ffffffffffffffffffffffffffffffffffffffff1681526020019081526020016000206000828254620002b29190620004af565b925050819055508173ffffffffffffffffffffffffffffffffffffffff16600073ffffffffffffffffffffffffffffffffffffffff167fddf252ad1be2c89b69c2b068fc378daa952ba7f163c4a11628f55a4df523b3ef836040516200031991906200051d565b60405180910390a362000335600083836200033e60201b60201c565b5050565b505050565b505050565b828054620003519062000569565b90600052602060002090601f016020900481019282620003755760008555620003c1565b82601f106200039057805160ff1916838001178555620003c1565b82800160010185558215620003c1579182015b82811115620003c0578251825591602001919060010190620003a3565b5b509050620003d09190620003d4565b5090565b5b80821115620003ef576000816000905550600101620003d5565b5090565b600082825260208201905092915050565b7f45524332303a206d696e7420746f20746865207a65726f206164647265737300600082015250565b60006200043c601f83620003f3565b9150620004498262000404565b602082019050919050565b600060208201905081810360008301526200046f816200042d565b9050919050565b6000819050919050565b7f4e487b7100000000000000000000000000000000000000000000000000000000600052601160045260246000fd5b6000620004bc8262000476565b9150620004c98362000476565b9250827fffffffffffffffffffffffffffffffffffffffffffffffffffffffffffffffff0382111562000501576200050062000480565b5b828201905092915050565b620005178162000476565b82525050565b60006020820190506200053460008301846200050c565b92915050565b7f4e487b7100000000000000000000000000000000000000000000000000000000600052602260045260246000fd5b600060028204905060018216806200058257607f821691505b602082108114156200059957620005986200053a565b5b50919050565b61187180620005af6000396000f3fe608060405234801561001057600080fd5b50600436106101005760003560e01c8063715018a611610097578063a457c2d711610066578063a457c2d7146102b1578063a9059cbb146102e1578063dd62ed3e14610311578063f2fde38b1461034157610100565b8063715018a61461023b5780638da5cb5b1461024557806395d89b41146102635780639b96eece1461028157610100565b8063313ce567116100d3578063313ce567146101a157806339509351146101bf57806340c10f19146101ef57806370a082311461020b57610100565b806306fdde0314610105578063095ea7b31461012357806318160ddd1461015357806323b872dd14610171575b600080fd5b61010d61035d565b60405161011a9190610f97565b60405180910390f35b61013d60048036038101906101389190611052565b6103ef565b60405161014a91906110ad565b60405180910390f35b61015b610412565b60405161016891906110d7565b60405180910390f35b61018b600480360381019061018691906110f2565b61041c565b60405161019891906110ad565b60405180910390f35b6101a961044b565b6040516101b69190611161565b60405180910390f35b6101d960048036038101906101d49190611052565b610454565b6040516101e691906110ad565b60405180910390f35b61020960048036038101906102049190611052565b61048b565b005b6102256004803603810190610220919061117c565b6104a1565b60405161023291906110d7565b60405180910390f35b6102436104e9565b005b61024d6104fd565b60405161025a91906111b8565b60405180910390f35b61026b610527565b6040516102789190610f97565b60405180910390f35b61029b6004803603810190610296919061117c565b6105b9565b6040516102a891906110d7565b60405180910390f35b6102cb60048036038101906102c69190611052565b6105cb565b6040516102d891906110ad565b60405180910390f35b6102fb60048036038101906102f69190611052565b610642565b60405161030891906110ad565b60405180910390f35b61032b600480360381019061032691906111d3565b610665565b60405161033891906110d7565b60405180910390f35b61035b6004803603810190610356919061117c565b6106ec565b005b60606003805461036c90611242565b80601f016020809104026020016040519081016040528092919081815260200182805461039890611242565b80156103e55780601f106103ba576101008083540402835291602001916103e5565b820191906000526020600020905b8154815290600101906020018083116103c857829003601f168201915b5050505050905090565b6000806103fa610770565b9050610407818585610778565b600191505092915050565b6000600254905090565b600080610427610770565b9050610434858285610943565b61043f8585856109cf565b60019150509392505050565b60006012905090565b60008061045f610770565b90506104808185856104718589610665565b61047b91906112a3565b610778565b600191505092915050565b610493610c50565b61049d8282610cce565b5050565b60008060008373ffffffffffffffffffffffffffffffffffffffff1673ffffffffffffffffffffffffffffffffffffffff168152602001908152602001600020549050919050565b6104f1610c50565b6104fb6000610e2e565b565b6000600560009054906101000a900473ffffffffffffffffffffffffffffffffffffffff16905090565b60606004805461053690611242565b80601f016020809104026020016040519081016040528092919081815260200182805461056290611242565b80156105af5780601f10610584576101008083540402835291602001916105af565b820191906000526020600020905b81548152906001019060200180831161059257829003601f168201915b5050505050905090565b60006105c4826104a1565b9050919050565b6000806105d6610770565b905060006105e48286610665565b905083811015610629576040517f08c379a00000000000000000000000000000000000000000000000000000000081526004016106209061136b565b60405180910390fd5b6106368286868403610778565b60019250505092915050565b60008061064d610770565b905061065a8185856109cf565b600191505092915050565b6000600160008473ffffffffffffffffffffffffffffffffffffffff1673ffffffffffffffffffffffffffffffffffffffff16815260200190815260200160002060008373ffffffffffffffffffffffffffffffffffffffff1673ffffffffffffffffffffffffffffffffffffffff16815260200190815260200160002054905092915050565b6106f4610c50565b600073ffffffffffffffffffffffffffffffffffffffff168173ffffffffffffffffffffffffffffffffffffffff161415610764576040517f08c379a000000000000000000000000000000000000000000000000000000000815260040161075b906113fd565b60405180910390fd5b61076d81610e2e565b50565b600033905090565b600073ffffffffffffffffffffffffffffffffffffffff168373ffffffffffffffffffffffffffffffffffffffff1614156107e8576040517f08c379a00000000000000000000000000000000000000000000000000000000081526004016107df9061148f565b60405180910390fd5b600073ffffffffffffffffffffffffffffffffffffffff168273ffffffffffffffffffffffffffffffffffffffff161415610858576040517f08c379a000000000000000000000000000000000000000000000000000000000815260040161084f90611521565b60405180910390fd5b80600160008573ffffffffffffffffffffffffffffffffffffffff1673ffffffffffffffffffffffffffffffffffffffff16815260200190815260200160002060008473ffffffffffffffffffffffffffffffffffffffff1673ffffffffffffffffffffffffffffffffffffffff168152602001908152602001600020819055508173ffffffffffffffffffffffffffffffffffffffff168373ffffffffffffffffffffffffffffffffffffffff167f8c5be1e5ebec7d5bd14f71427d1e84f3dd0314c0f7b2291e5b200ac8c7c3b9258360405161093691906110d7565b60405180910390a3505050565b600061094f8484610665565b90507fffffffffffffffffffffffffffffffffffffffffffffffffffffffffffffffff81146109c957818110156109bb576040517f08c379a00000000000000000000000000000000000000000000000000000000081526004016109b29061158d565b60405180910390fd5b6109c88484848403610778565b5b50505050565b600073ffffffffffffffffffffffffffffffffffffffff168373ffffffffffffffffffffffffffffffffffffffff161415610a3f576040517f08c379a0000000000000000000000000000000000000000000000000000000008152600401610a369061161f565b60405180910390fd5b600073ffffffffffffffffffffffffffffffffffffffff168273ffffffffffffffffffffffffffffffffffffffff161415610aaf576040517f08c379a0000000000000000000000000000000000000000000000000000000008152600401610aa6906116b1565b60405180910390fd5b610aba838383610ef4565b60008060008573ffffffffffffffffffffffffffffffffffffffff1673ffffffffffffffffffffffffffffffffffffffff16815260200190815260200160002054905081811015610b40576040517f08c379a0000000000000000000000000000000000000000000000000000000008152600401610b3790611743565b60405180910390fd5b8181036000808673ffffffffffffffffffffffffffffffffffffffff1673ffffffffffffffffffffffffffffffffffffffff16815260200190815260200160002081905550816000808573ffffffffffffffffffffffffffffffffffffffff1673ffffffffffffffffffffffffffffffffffffffff1681526020019081526020016000206000828254610bd391906112a3565b925050819055508273ffffffffffffffffffffffffffffffffffffffff168473ffffffffffffffffffffffffffffffffffffffff167fddf252ad1be2c89b69c2b068fc378daa952ba7f163c4a11628f55a4df523b3ef84604051610c3791906110d7565b60405180910390a3610c4a848484610ef9565b50505050565b610c58610770565b73ffffffffffffffffffffffffffffffffffffffff16610c766104fd565b73ffffffffffffffffffffffffffffffffffffffff1614610ccc576040517f08c379a0000000000000000000000000000000000000000000000000000000008152600401610cc3906117af565b60405180910390fd5b565b600073ffffffffffffffffffffffffffffffffffffffff168273ffffffffffffffffffffffffffffffffffffffff161415610d3e576040517f08c379a0000000000000000000000000000000000000000000000000000000008152600401610d359061181b565b60405180910390fd5b610d4a60008383610ef4565b8060026000828254610d5c91906112a3565b92505081905550806000808473ffffffffffffffffffffffffffffffffffffffff1673ffffffffffffffffffffffffffffffffffffffff1681526020019081526020016000206000828254610db191906112a3565b925050819055508173ffffffffffffffffffffffffffffffffffffffff16600073ffffffffffffffffffffffffffffffffffffffff167fddf252ad1be2c89b69c2b068fc378daa952ba7f163c4a11628f55a4df523b3ef83604051610e1691906110d7565b60405180910390a3610e2a60008383610ef9565b5050565b6000600560009054906101000a900473ffffffffffffffffffffffffffffffffffffffff16905081600560006101000a81548173ffffffffffffffffffffffffffffffffffffffff021916908373ffffffffffffffffffffffffffffffffffffffff1602179055508173ffffffffffffffffffffffffffffffffffffffff168173ffffffffffffffffffffffffffffffffffffffff167f8be0079c531659141344cd1fd0a4f28419497f9722a3daafe3b4186f6b6457e060405160405180910390a35050565b505050565b505050565b600081519050919050565b600082825260208201905092915050565b60005b83811015610f38578082015181840152602081019050610f1d565b83811115610f47576000848401525b50505050565b6000601f19601f8301169050919050565b6000610f6982610efe565b610f738185610f09565b9350610f83818560208601610f1a565b610f8c81610f4d565b840191505092915050565b60006020820190508181036000830152610fb18184610f5e565b905092915050565b600080fd5b600073ffffffffffffffffffffffffffffffffffffffff82169050919050565b6000610fe982610fbe565b9050919050565b610ff981610fde565b811461100457600080fd5b50565b60008135905061101681610ff0565b92915050565b6000819050919050565b61102f8161101c565b811461103a57600080fd5b50565b60008135905061104c81611026565b92915050565b6000806040838503121561106957611068610fb9565b5b600061107785828601611007565b92505060206110888582860161103d565b9150509250929050565b60008115159050919050565b6110a781611092565b82525050565b60006020820190506110c2600083018461109e565b92915050565b6110d18161101c565b82525050565b60006020820190506110ec60008301846110c8565b92915050565b60008060006060848603121561110b5761110a610fb9565b5b600061111986828701611007565b935050602061112a86828701611007565b925050604061113b8682870161103d565b9150509250925092565b600060ff82169050919050565b61115b81611145565b82525050565b60006020820190506111766000830184611152565b92915050565b60006020828403121561119257611191610fb9565b5b60006111a084828501611007565b91505092915050565b6111b281610fde565b82525050565b60006020820190506111cd60008301846111a9565b92915050565b600080604083850312156111ea576111e9610fb9565b5b60006111f885828601611007565b925050602061120985828601611007565b9150509250929050565b7f4e487b7100000000000000000000000000000000000000000000000000000000600052602260045260246000fd5b6000600282049050600182168061125a57607f821691505b6020821081141561126e5761126d611213565b5b50919050565b7f4e487b7100000000000000000000000000000000000000000000000000000000600052601160045260246000fd5b60006112ae8261101c565b91506112b98361101c565b9250827fffffffffffffffffffffffffffffffffffffffffffffffffffffffffffffffff038211156112ee576112ed611274565b5b828201905092915050565b7f45524332303a2064656372656173656420616c6c6f77616e63652062656c6f7760008201527f207a65726f000000000000000000000000000000000000000000000000000000602082015250565b6000611355602583610f09565b9150611360826112f9565b604082019050919050565b6000602082019050818103600083015261138481611348565b9050919050565b7f4f776e61626c653a206e6577206f776e657220697320746865207a65726f206160008201527f6464726573730000000000000000000000000000000000000000000000000000602082015250565b60006113e7602683610f09565b91506113f28261138b565b604082019050919050565b60006020820190508181036000830152611416816113da565b9050919050565b7f45524332303a20617070726f76652066726f6d20746865207a65726f2061646460008201527f7265737300000000000000000000000000000000000000000000000000000000602082015250565b6000611479602483610f09565b91506114848261141d565b604082019050919050565b600060208201905081810360008301526114a88161146c565b9050919050565b7f45524332303a20617070726f766520746f20746865207a65726f20616464726560008201527f7373000000000000000000000000000000000000000000000000000000000000602082015250565b600061150b602283610f09565b9150611516826114af565b604082019050919050565b6000602082019050818103600083015261153a816114fe565b9050919050565b7f45524332303a20696e73756666696369656e7420616c6c6f77616e6365000000600082015250565b6000611577601d83610f09565b915061158282611541565b602082019050919050565b600060208201905081810360008301526115a68161156a565b9050919050565b7f45524332303a207472616e736665722066726f6d20746865207a65726f20616460008201527f6472657373000000000000000000000000000000000000000000000000000000602082015250565b6000611609602583610f09565b9150611614826115ad565b604082019050919050565b60006020820190508181036000830152611638816115fc565b9050919050565b7f45524332303a207472616e7366657220746f20746865207a65726f206164647260008201527f6573730000000000000000000000000000000000000000000000000000000000602082015250565b600061169b602383610f09565b91506116a68261163f565b604082019050919050565b600060208201905081810360008301526116ca8161168e565b9050919050565b7f45524332303a207472616e7366657220616d6f756e742065786365656473206260008201527f616c616e63650000000000000000000000000000000000000000000000000000602082015250565b600061172d602683610f09565b9150611738826116d1565b604082019050919050565b6000602082019050818103600083015261175c81611720565b9050919050565b7f4f776e61626c653a2063616c6c6572206973206e6f7420746865206f776e6572600082015250565b6000611799602083610f09565b91506117a482611763565b602082019050919050565b600060208201905081810360008301526117c88161178c565b9050919050565b7f45524332303a206d696e7420746f20746865207a65726f206164647265737300600082015250565b6000611805601f83610f09565b9150611810826117cf565b602082019050919050565b60006020820190508181036000830152611834816117f8565b905091905056fea264697066735822122098a142a49fb9654a31d73e22608b8a3e7e61d3540779d6ffad8071ad6d6d5c0964736f6c63430008090033",
  "linkReferences": {},
  "deployedLinkReferences": {}
}